:100000000C9418050C94D90E0C9435050C943505F8
:100010000C9435050C9435050C9435050C94350578
:100020000C9435050C9446050C9435050C94350557
:100030000C9435050C947E0F0C94A70F0C94350589
:100040000C9435050C9435050C9435050C94350548
:100050000C943505036EDB363D9A9999993DABAA10
:10006000AA2A3E000000803F084AD73B3BCE016EE3
:1000700084BCBFFDC12F3D6C74319ABD56833DDAFF
:100080003D00C77F11BED9E4BB4C3E916BAAAABE0E
:10009000000000803F072C7AA5BA6CC590DA3B932C
:1000A00065FC8BBC53F810FD3C5692834DBD879D7B
:1000B0003AB63DCBC9BF5BBE73DA0FC93F00004003
:1000C0007A10F35A00A0724E18090010A5D4E80067
:1000D00000E87648170000E40B54020000CA9A3B7F
:1000E000000000E1F5050000809698000000404205
:1000F0000F000000A0860100000010270000000093
:10010000E803000000006400000000000A00000096
:1001100000000100000000002C76D888DC674F0842
:1001200023DFC1DFAE59E1B1B796E5E3E453C63A48
:10013000E651997696E8E6C28426EB898C9B62EDBF
:10014000407C6FFCEFBC9C9F40F2BAA56FA5F49079
:10015000055A2AF75C936B6CF9676DC11BFCE0E4F0
:100160000D47FEF520E6B500D0ED902E0300943546
:1001700077050080841E080000204E0A000000C899
:100180000C333333330F986E12831141EF8D2114EA
:10019000893BE65516CFFEE6DB18D1844B381BF7BA
:1001A0007C1D901DA4BBE424203284725E22810059
:1001B000C9F124ECA1E53D2701B202FFFF01900443
:1001C0000923A135016A0206000160080000000051
:1001D0000000000000600440000000016202000016
:1001E00000600400400000037B034CCD6C03AB03B4
:1001F00036567600680402CB47A202180400058B2D
:10020000C1010C0400000000037F060CC92C979765
:1002100097038903264666006C0220000240040012
:100220000000000244040000000002480400000036
:1002300000024C0400000000025004000000000214
:1002400054040000000002580400000000025C0496
:100250000000000002BC040000000001EC040000EB
:100260004000037F060CC92C9797970402030D35B5
:100270005D040904872D353D00A301000000000145
:10028000078601FE074105F120283038077E01303E
:100290000746019A074704F1283038076C04F12813
:1002A00030380216020009FB00003E000B00360049
:1002B0000100020003000000650054FFEF0000FA97
:1002C00080000B128200010002000000000000000C
:1002D0000000000000000000280000FFFF4581FF33
:1002E000FFFA7200000000000003E80000000100B7
:1002F000017FFFFFFE8001001B00000000000000E6
:1003000000000000000000003E033040000000023A
:10031000CAE3093E80000020000000000000004009
:100320000000006000000041FF000000000B2A00F8
:1003300000165500002182FD872650FD8000000038
:100340001F00000005800000000000000100000008
:1003500002000000030000400000000000046F00E5
:1003600002653200005EC040000000000000000096
:1003700000000000000000FB8C6F5DFD5D08D900EF
:100380007C733B006C12CC3200139D3200D0D6320D
:10039000000800400001F4FFE68079020000000040
:1003A00000D0D600002710FB000000400000000035
:1003B000000000000000000000000100000000003C
:1003C000000100010000000000FA36FFBC308E0082
:1003D00005FBF0FFD95BC8FFD09ABE000010A9FF53
:1003E000F41EB200CEBBF7000000010000000400C4
:1003F0000200020200000CFFC28000000180000029
:10040000CF8000400000000000000100000000005C
:1004100000060000000014000000000000000000C2
:1004200000000000000000000000000000000000CC
:1004300000000000000000000000000000000000BC
:100440000000000000000000000000033F68B679D3
:100450003528BCC67ED16C80000000400000000042
:1004600000B26A0000000000000000000000000070
:10047000003FF0000000300000000000000000001D
:10048000000000000000000000000000000000006C
:10049000000000000000000000254D002F706D00DE
:1004A0000005AE000C02D00000000000650054FF03
:1004B000EF00000000000000000100004400000008
:1004C000000C0000000100000000000065000000BA
:1004D000540000FFEF0000000000000000000000DA
:1004E00000000000000000400000000000000000CC
:1004F00000000000000000400000000000000000BC
:1005000000000000000000000000010000000200E8
:1005100000000000000000000000000000000000DB
:1005200000000000000000000000000000000000CB
:1005300000000000000000001B00000000000000A0
:1005400000000000000000000000000000000000AB
:10055000000000000000000000000000000000009B
:1005600000000040000000001B0000000000000030
:10057000000000000000000000000000000000007B
:10058000000000000000000000000000000000006B
:10059000000000000000000000000000000000005B
:1005A00000000000000000D8DCBAA2F1DEB2B8B44E
:1005B000A88191F74A907F916AF3F9DBA8F9B0BA64
:1005C000A080F2CE81F3C2F1C1F2C3F3CCA2B2801B
:1005D000F1C6D880BAA7DFDFDFF2A7C3CBC5B6F07C
:1005E00087A2942448703C95406834589B78A2F1C7
:1005F00083922D557DD8B1B4B8A1D09180F270F31B
:1006000070F27C80A8F101B09887D943D886C98858
:10061000BAA1F20EB89780F1A9DFDFDFAADFDFDF32
:10062000F2AAC5CDC7A90CC92C97979797F1A989AC
:10063000264666B0B4BA80ACDEF2CAF1B28C02A92A
:10064000B69800890E161EB8A9B4992C547CB08AAD
:10065000A896365676F1B9AFB4B083C0B8A8971152
:10066000B18F98B9AFF0240844106418F1A329554C
:100670007DAF83B593AFF0002850F1A3869F61A6AC
:10068000DADEDFD9FAA38696DB31A6D9F8DFBAA67F
:100690008FC2C5C7B28CC1B8A2DFDFDFA3DFDFDF47
:1006A000D8D8F1B8A8B286B4980D355DB8AA98B07C
:1006B000872D353DB2B6BAAF8C96198F9FA70E160F
:1006C0001EB49AB8AA872C547CB9A3DEDFDFA3B18D
:1006D00080F2C4CDC9F1B8A9B499830D355D89B94B
:1006E000A32D557DB593A30E161EA92C547CB8B42A
:1006F000B0F19783A81184A50998A383F0DA2408A0
:1007000044106418D8F1A529557DA58595021A2EA7
:100710003A565A4048F9F3A3D9F8F098832408448C
:100720001064189782A8F111F098A224084410646C
:1007300018DAF3DED883A59401D9A302F1A2C3C5C8
:10074000C7D8F18492A24DDA2AD84869D92AD86844
:1007500055DA32D85071D932D8705DDA3AD8587932
:10076000D93AD87893A34DDA2AD84869D92AD868D3
:1007700055DA32D85071D932D8705DDA3AD8587912
:10078000D93AD878A88A9AF02850789EF38818F138
:100790009F1D98A8D908D8C89F129EF315A8DA12F1
:1007A00010D8F1AFC8978734B5B994A421F3D922F2
:1007B000D8F22DF3D92AD8F235F3D932D881A460F2
:1007C0006061D961D86C6869D969D8747071D97160
:1007D000D8B1A384193D5DA3831A3E5E9310308186
:1007E0001011B8B0AF8F94F2DA3ED8B49AA8872926
:1007F000DAF8D8879A35DAF8D8879A3DDAF8D8B196
:10080000B9A49885022E56A581000C14A397B08A2E
:10081000F12DD928D84DD948D86DD968D8B1840DD3
:10082000DA0ED8A32983DA2C0ED8A3844983DA2CD4
:100830004C0ED8B8B0A88A9AF520AADADFD8A8401A
:10084000AAD0DADED8A860AADAD0DFD8F19786A8D5
:10085000319B069907AB9728889BF00C201440B871
:10086000B0B4A88C9CF0042851791D301438B282A1
:10087000ABD0982C505078789BF11AB0F08A9CA895
:100880002951798B2951798A2470598B2058718A82
:100890004469388B3940688A6448318B304960A597
:1008A00088200971584468113964493019F1AC0045
:1008B0002C547CF08CA804285078F1889726A859ED
:1008C00098AC8C02264666F0899CA8295179247040
:1008D00059446938644831A98809205970AB1138E6
:1008E0004069A8193148608CA83C415C207C00F12B
:1008F00087981986A86E767EA999882D557D9EB910
:10090000A38A228A6E8A568A5E9FB183062646662D
:100910000E2E4E6E9DB8AD002C547CF2B18CB49965
:10092000B9A32D557D8191AC38AD3AB58391AC2DED
:10093000D928D84DD948D86DD968D88C9DAE29D939
:1009400004AED851D904AED879D904D881F39DAD7D
:10095000008DAE1981ADD901D8F2AEDA26D88E91CC
:100960002983A7D9ADADADADF32AD8D8F1B0AC8904
:10097000913E5E76F3AC2E2EF1B18C5A9CAC2C28B5
:1009800028289CAC3018A8988128343C9724A728A4
:10099000343C9C24F2B089AC912C4C6C8A9B2DD9B0
:1009A000D8D851D9D8D879D9D8D8F19E88A331DAF6
:1009B000D8D8912DD928D84DD948D86DD968D8B173
:1009C0008393353D8025DAD8D88569DAD8D8B493B1
:1009D00081A328343CF3AB8BF8A391B609B4D9AB0F
:1009E000DEFAB0879CB9A3DDF1A3A3A3A395F1A37D
:1009F000A3A39DF1A3A3A3A3F2A3B49080F2A3A306
:100A0000A3A3A3A3A3A3A3A3B2A3A3A3A3A3A3B09A
:100A100087B599F1A3A3A398F1A3A3A3A397A3A335
:100A2000A3A3F39BA3A3DCB9A7F1262626D8D8FF5E
:100A300011241FBECFE5D8E0DEBFCDBF10E0A0E699
:100A4000B0E0E2E0F0E302C005900D92AA3AB107EF
:100A5000D9F721E0AAEAB0E001C01D92AB34B20799
:100A6000E1F70E9487050C94FF170C94000081E0C9
:100A70008EBD84E089BF1DBC1CBC1092F300109297
:100A8000F4001092F5001092F60008951F920F9254
:100A90000FB60F9211248F939F93AF93BF938091C2
:100AA000F3009091F400A091F500B091F60001964A
:100AB000A11DB11D8093F3009093F400A093F50065
:100AC000B093F600BF91AF919F918F910F900FBEA1
:100AD0000F901F9018958091F3009091F400A091D1
:100AE000F500B091F6002CB53DB5DC0199278827BB
:100AF000BC01CD01620F731F811D911D28EE33E0F3
:100B000040E050E00E945713CA01B9010895CF9305
:100B1000DF93CDB7DEB7AA970FB6F894DEBF0FBE4E
:100B2000CDBF8FE087BB80E090E0A0E8BFE3898382
:100B30009A83AB83BC831D821E821F82188619860E
:100B40001A861B861C861D861E861F86188A198A91
:100B50001A8A1B8A1C8A1D8A1E8A1F8A188E198E61
:100B60001A8E1B8E1C8E8CE090E00E94CC0F789425
:100B70000E945A0A83ED90E30197F1F700C000004C
:100B80000E949D0A0E948B0AE3ECF9E03197F1F78D
:100B900000C000000E943705612C712C1FA218A60E
:100BA00019A61AA61E01F9E12F0E311C2E0125E10E
:100BB000420E511C86E690E00E94F10F9E01235FD9
:100BC0003F4FAE01475F5F4FBE016B5F7F4FCE016E
:100BD00001960E947B0E8823E9F0AD84BE84CF8409
:100BE000D888E984FA840B851C852D813E814F814C
:100BF000588569817A818B819C813F922F925F9287
:100C00004F92FE0171964F010E948A0D0F900F9036
:100C10000F900F9083EC99E00197F1F700C000006E
:100C200020E030E044E353E469897A898B899C8928
:100C30000E948B1220ED3FE049E450E40E94FF1037
:100C4000E62EF72E082F192F0E946B0561147104F0
:100C500039F460387E438105910508F06AC063C0AD
:100C6000F1E06F16710409F05EC08CE790E00E941D
:100C7000F10F18BA23E02A95F1F700002FA138A54B
:100C800049A55AA56E2D7F2D802F912F0E9400100F
:100C90006B017C018EE890E00E94F10F8E01035EF3
:100CA0001F4F20E043E0C701B6010E947913C8013D
:100CB0000E94F10F81E990E00E94F10F20E030E006
:100CC00040EA50ECC701B6010E94FA1018165CF019
:100CD00084E990E00E94F10F82E088BB93E09A954E
:100CE000F1F700002DC020E030E040EA50E4C701F9
:100CF000B6010E947E1288235CF086E990E00E9493
:100D0000F10FE1E0E8BBF3E0FA95F1F7000018C05D
:100D100083E088BB88E990E00E94F10F23E02A95E8
:100D2000F1F700000DC08AE990E00E94F10F18BAB7
:100D300007C0EFA2F8A609A71AA766246394712C2E
:100D40008AE00E94E00F8AE00E94E00F33CFAF926A
:100D5000BF92CF92DF92FF920F931F93CF93DF93B7
:100D60006623B9F1C52FD42FF62E182F80ED0E94DF
:100D7000EC0E812F0E94360F83E08A95F1F7000078
:100D800081ED0E94EC0E0D2F1C2FCC24CA94CF0CA9
:100D9000D12CEFEFCE1ADE0AC0E0D0E0AF2CB12CA0
:100DA000F1E0AF1AB108AC16BD0629F40E94680F35
:100DB000F801808304C00E94520FF80180832196BD
:100DC0000F5F1F4FCC15DD0571F7CF2D0E94290F46
:100DD00001C0C0E08C2FDF91CF911F910F91FF9048
:100DE000DF90CF90BF90AF900895AB0161E00E947B
:100DF000A7060895EF92FF920F931F93CF93DF936F
:100E00006623D1F07A01162FC82F80ED0E94EC0ED8
:100E10008C2F0E94360FE7016FEF610F062F10E055
:100E20000F5F1F4F0E0D1F1D89910E94360FC017B7
:100E3000D107D1F70E94290FDF91CF911F910F9118
:100E4000FF90EF900895CF93DF931F92CDB7DEB759
:100E50006983AE014F5F5F4F61E00E94FA060F9019
:100E6000DF91CF910895EF92FF920F931F93CF934D
:100E7000DF931F92CDB7DEB7442351F17901042FE0
:100E8000162FBE016F5F7F4F0E94F506882309F180
:100E9000612F70E0601B71096F5F7F4F21E030E0D0
:100EA00002C0220F331F0A95E2F721503109062EA6
:100EB00002C0220F331F0A94E2F79981292330E000
:100EC00002C0359527956A95E2F7F701208301C0A6
:100ED00080E00F90DF91CF911F910F91FF90EF90E5
:100EE0000895EF92FF920F931F93CF93DF931F927A
:100EF000CDB7DEB7442389F1F22E142F062FE82E4A
:100F00001982BE016F5F7F4F0E94F506882329F189
:100F1000402F50E0411B51094F5F5F4F81E090E04F
:100F200002C0880F991F1A95E2F70197042E02C09C
:100F3000880F991F0A94E2F72F2D30E002C0220F8C
:100F4000331F4A95E2F7682F6095998169238223C0
:100F5000682B69838E2D0E9423070F90DF91CF911C
:100F60001F910F91FF90EF900895FF920F931F93A1
:100F7000CF93DF931F92CDB7DEB7182F062FF42E35
:100F8000BE016F5F7F4F0E94F506FF2051F061E0C8
:100F900070E002C0660F771F0A95E2F78981682B1F
:100FA0000AC061E070E002C0660F771F0A95E2F7A1
:100FB0006095898168236983812F0E9423070F90A0
:100FC000DF91CF911F910F91FF900895FF920F93A2
:100FD0001F93CF93DF93662361F1EA01062F182F49
:100FE00080ED0E94EC0E812F0E94360F10E0000F62
:100FF000111F10161106DCF4F12CEF2DF0E0EE0FAE
:10100000FF1FEC0FFD1F81810E94360FE1E0EF0D05
:10101000F0E0EE0FFF1FEC0FFD1F80810E94360FE6
:10102000F394F3948F2D90E08017910734F30E948E
:10103000290FDF91CF911F910F91FF9008958F712C
:101040004111806261118064682F8DE60E94230740
:101050000895682F8EE60E94230708958F929F922D
:10106000AF92BF92CF92DF92EF92FF920F931F93B6
:10107000CF93DF936C017B01942E022F642F6F714D
:101080008DE60E942307802F0E942908E114F104B5
:1010900099F1C0E0D0E06894882484F8A12CBB24A6
:1010A000B394CE014096E816F90618F41E2D1C1BC9
:1010B00001C0182D812F90E09501201B31092817C0
:1010C000390714F4102F1195A6014C0F5D1F612FE5
:1010D0008FE60E94A706C10FD11DCE15DF0560F473
:1010E000010F09F49394692D6F718DE60E94230717
:1010F000802F0E942908D5CFDF91CF911F910F91AA
:10110000FF90EF90DF90CF90BF90AF909F908F9027
:1011100008952F923F924F925F926F927F928F929B
:101120009F92AF92BF92CF92DF92EF92FF920F9376
:101130001F93CF93DF933C015B01342EF22E642F7B
:101140006F718DE60E9423078F2D0E9429080023CE
:1011500031F080E190E00E9499134C0102C0812C93
:10116000912CEE2031F080E190E00E9499136C0107
:1011700002C0C12CD12CA114B10409F46EC0C0E08E
:10118000D0E06894222424F8412C55245394CE01B5
:101190004096A816B90618F41A2D1C1B01C0122D72
:1011A000812F90E092012F1931092817390714F483
:1011B0001F2D1195EE20A1F01123A9F0F301EC0FE2
:1011C000FD1FD6012FEF210F30E02F5F3F4F2C0D79
:1011D0003D1D84918D933196A217B307D1F703C0BB
:1011E0006301CC0EDD1EA601612F8FE60E94FA0678
:1011F000002311F181149104F9F0632D6F718DE6D4
:101200000E9423078F2D0E942908A401612F8FE6D9
:101210000E94A706412F50E0B401C6010E9480152C
:10122000892B51F0C4010E943114EE2011F1C60146
:101230000E94311480E020C0C10FD11DCA15DB050A
:1012400060F4F10E09F43394632D6F718DE60E9402
:1012500023078F2D0E9429089ACF002319F0C4017B
:101260000E943114EE2039F0C6010E94311481E051
:1012700003C080E001C081E0DF91CF911F910F9109
:10128000FF90EF90DF90CF90BF90AF909F908F90A6
:101290007F906F905F904F903F902F9008955F9256
:1012A0006F927F928F929F92AF92BF92CF92DF9276
:1012B000EF92FF920F931F93CF93DF935C013B015B
:1012C000542E442309F47CC088E090E00E949913D6
:1012D0004C016114710419F46AC0812C912CC0E096
:1012E000D0E05520A9F0F501EC0FFD1FF490FE01B0
:1012F0003196EA0DFB1D14916E0183E0C80ED11CDE
:10130000FE013296EA0DFB1D049101110CC05DC077
:101310006E0183E0C80ED11CF501EC0FFD1F0281A8
:1013200001111BC058C0033030F0602F70E0C401C1
:101330000E94BA144C01202F30E021153105A1F094
:10134000F501EC0DFD1DD401280D391D84918D93FF
:101350003196A217B307D1F707C0CA0DDB1DF8807D
:10136000198145018C0C9D1CC02FD0E0E12C01E0BF
:10137000212F4F2DBE01C4010E948908CC0DDD1D17
:1013800081110FC007C0E13029F462E388E30E94B5
:10139000230707C0552081F0C4010E94311480E06A
:1013A00020C0C615D70508F49CCF552039F0C401DC
:1013B0000E94311481E015C080E013C081E011C0AB
:1013C000672B09F08ACF81E00CC02496F501EC0D63
:1013D000FD1DE491D8CF2496F501EC0DFD1DE081B3
:1013E000D2CFDF91CF911F910F91FF90EF90DF90BF
:1013F000CF90BF90AF909F908F907F906F905F90B5
:10140000089547EF50E062E082E70E94A706E7EF09
:10141000F0E02081818190E0922B0895AC0184E777
:101420000E94A706089567EF70E08AE30E94F50620
:101430008091F700089541E062E08AE60E94B507D6
:10144000089527EF30E046E066E080E00E94330731
:101450008091F7000895282F46E066E080E00E9422
:101460007107089527EF30E046E066E081E00E94D2
:1014700033078091F7000895282F46E066E081E069
:101480000E947107089527EF30E046E066E082E0B1
:101490000E9433078091F7000895282F46E066E008
:1014A00082E00E947107089540E066E08BE60E94AA
:1014B000B50708950E94E80E83E08A95F1F70000D1
:1014C00087EA91E60197F1F700C000000E94540AF4
:1014D00083EC99E00197F1F700C0000021E043E0C0
:1014E00062E08BE60E94710723E043E062E08AE15C
:1014F0000E94710764E089E10E94230723E042E033
:1015000064E08BE10E94710720E042E064E08CE13E
:101510000E94710708958BB780648BBF41E067E03C
:101520008AE60E94B50708958BB78F7B8BBF40E09A
:1015300067E08AE60E94B5070895CF92DF92EF92A6
:101540000F931F93CF93DF93CDB7DEB7C059D10967
:101550000FB6F894DEBF0FBECDBF85B7836085BFE1
:1015600041E067E08BE60E94B5078BE49DE10197BF
:10157000F1F700C000000E94540A40E060E080E003
:101580000E941F080E94210AD82E0E94320A182F9A
:101590000E94430A6FE785E20E94230740E065E06E
:1015A0008AE60E94B50768E685E20E94230741E0CB
:1015B00061E08AE60E94B50787E893E10197F1F7B9
:1015C00000C00000EE24E39401E020E040E069E880
:1015D00077E087EA92E00E948908813009F009C229
:1015E00041E060EC70E087EE91E00E944F098823B3
:1015F00009F401C223E043E062E08BE60E94710738
:1016000062E188E30E94230764E089E10E942307E6
:1016100021E043E065E08AE10E94710723E043E0B6
:1016200062E08AE10E94710723E042E064E08BE11E
:101630000E94710763E080E70E94230760E081E772
:101640000E94230740E060E080E00E94B5078D2DF6
:101650000E942B0A812F0E943C0A8AE50E944D0AB3
:1016600040E050E061E083E10E94E60740E050E0A6
:1016700061E085E10E94E60740E050E061E087E13B
:101680000E94E607C12CD12C80E0F601E854FE4F01
:10169000E491A1E8B0E0AC0FBD1FA80FB11DEC9321
:1016A0008F5F9FEFC91AD90A843078F3CD57DF4F87
:1016B0006881C358D040482F50E0262F30E02D5F7E
:1016C0003F4F421753070CF370E0E12C01E0CE5777
:1016D000DF4F2881C258D040CF57DF4F4881C158D3
:1016E000D04081E890E08C0F9D1F03960E948908EE
:1016F00080E0F601E854FE4FE491A1E8B0E0AC0FC1
:10170000BD1FA80FB11DEC938F5F9FEFC91AD90AB7
:10171000843078F3CD57DF4F6881C358D040482FCD
:1017200050E0262F30E02D5F3F4F421753070CF358
:1017300070E0E12C01E0CE57DF4F2881C258D04045
:10174000CF57DF4F4881C158D04081E890E08C0FDF
:101750009D1F03960E94890821E041E062E08AE62D
:101760000E9471070E94010AAE014F5F5F4F682F10
:1017700084E70E94A70662E08FE10E9423076CE9DC
:1017800081E20E94230760E580E20E94230760E077
:1017900082E20E94230741E062E08AE60E94B507E8
:1017A00041E066E08AE60E94B5070E948B0A41E0AC
:1017B00063E08AE60E94B5070E94010A182F833071
:1017C000D8F380E0F601E854FE4FE491A1E8B0E0E0
:1017D000AC0FBD1FA80FB11DEC938F5F9FEFC91A0F
:1017E000D90A843078F3CD57DF4F6881C358D04091
:1017F000482F50E0262F30E02D5F3F4F4217530710
:101800000CF370E0E12C01E0CE57DF4F2881C25885
:10181000D040CF57DF4F4881C158D04081E890E099
:101820008C0F9D1F03960E94890880E0F601E85402
:10183000FE4FE491A1E8B0E0AC0FBD1FA80FB11DB1
:10184000EC938F5F9FEFC91AD90A843078F3CD5794
:10185000DF4F6881C358D040482F50E0262F30E03A
:101860002D5F3F4F421753070CF370E0E12C01E06E
:10187000CE57DF4F2881C258D040CF57DF4F488125
:10188000C158D04081E890E08C0F9D1F03960E94C4
:10189000890880E0F601E854FE4FE491A1E8B0E049
:1018A000AC0FBD1FA80FB11DEC938F5F9FEFC91A3E
:1018B000D90A843078F3CD57DF4F6881C358D040C0
:1018C000482F50E0262F30E02D5F3F4F421753073F
:1018D0000CF370E0E12C01E0CE57DF4F2881C258B5
:1018E000D040CF57DF4F4881C158D04081E890E0C9
:1018F0008C0F9D1F03960E948908612FCE010196CF
:101900000E940E0A80E0F601E854FE4FE491A1E83F
:10191000B0E0AC0FBD1FA80FB11DEC938F5F9FEF20
:10192000C91AD90A843078F3CD57DF4F6881C3587C
:10193000D040482F50E0262F30E02D5F3F4F421718
:1019400053070CF370E0CE57DF4F2881C258D040C8
:10195000CF57DF4F4881C158D04081E890E08C0FCD
:101960009D1F03960E942E080E94010A8330E0F317
:10197000682FCE0101960E940E0AF601E854FE4F30
:1019800080E001C031969491A1E8B0E0AC0FBD1F9A
:10199000A80FB11D9C938F5F8430A0F3CD57DF4F0C
:1019A0006881C358D040482F50E0262F30E02D5F8B
:1019B0003F4F4217530734F370E0E12C01E0CE575C
:1019C000DF4F2881C258D040CF57DF4F4881C158E0
:1019D000D04081E890E08C0F9D1F03960E948908FB
:1019E0000E94940A41E062E08AE60E94B50780E026
:1019F00003C081E001C082E0C057DF4F0FB6F8940A
:101A0000DEBF0FBECDBFDF91CF911F910F91EF9041
:101A1000DF90CF900895AF92BF92CF92DF92EF9276
:101A2000FF920F931F93CF93DF93EC015B016A0149
:101A30007901892B21F4C0910501D09106016881BB
:101A400070E0762F66278981680F711D072E000CC4
:101A5000880B990B0E94731120E030E040E858E3B6
:101A60000E948B12F50160837183828393836C8162
:101A700070E0762F66278D81680F711D072E000C90
:101A8000880B990B0E94731120E030E040E858E386
:101A90000E948B12F6016083718382839383688531
:101AA00070E0762F66278985680F711D072E000C60
:101AB000880B990B0E94731120E030E040E858E356
:101AC0000E948B12F70160837183828393836C85FC
:101AD00070E0762F66278D85680F711D072E000C2C
:101AE000880B990B0E94731120E030E040E858E326
:101AF0000E948B12F8016083718382839383DF914C
:101B0000CF911F910F91FF90EF90DF90CF90BF90FA
:101B1000AF9008954F925F926F927F928F929F92B3
:101B2000AF92BF92CF92DF92EF92FF920F931F93EB
:101B3000CF93DF93CDB7DEB768970FB6F894DEBFCB
:101B40000FBECDBF2B013C0129833A834B835C83BD
:101B5000ED82FE820F8318879B01AC010E94011069
:101B600069877A878B879C879B01AC01C301B2018F
:101B70000E948B126D877E878F87988B29813A818F
:101B80004B815C81CA01B9010E9401102B013C010B
:101B90009B01AC0169817A818B819C810E948B12AF
:101BA0002D853E854F8558890E94011020E030E048
:101BB00040E85FE30E940010698B7A8B8B8B9C8BD3
:101BC000A8019701C301B2010E948B126D8B7E8B1D
:101BD0008F8B988FA601950169857A858B859C8569
:101BE0000E948B129B01AC016D897E898F89988D33
:101BF0000E94001029893A894B895C890E949B10B8
:101C0000EDA5FEA56083718382839383A601950170
:101C1000C301B2010E948B122B013C01A801970164
:101C200069857A858B859C850E948B129B01AC010E
:101C3000C301B2010E9401100E946D10DC01CB01B2
:101C4000B058EBA5FCA580839183A283B383A60142
:101C50009501C601B5010E940110A60195010E94DF
:101C60008B122D853E854F8558890E94011020E0FA
:101C700030E040E85FE30E9400102B013C01A80126
:101C80009701C801B7010E940110A60195010E94A9
:101C90008B126B017C0129813A814B815C816985C2
:101CA0007A858B859C850E948B129B01AC01C701B4
:101CB000B6010E940010A30192010E949B10F40142
:101CC000608371838283938368960FB6F894DEBF36
:101CD0000FBECDBFDF91CF911F910F91FF90EF907D
:101CE000DF90CF90BF90AF909F908F907F906F903C
:101CF0005F904F900895CF92DF92EF92FF920F93F3
:101D00001F93CF93DF93EC017B016A01890120913E
:101D1000AB003091AC008091AD00811103C02A323C
:101D20003105C8F31092AD000E94130A8093AA00F7
:101D30000E94010A9C019093AC008093AB009091AB
:101D4000AA0094FD04C0211584E0380721F40E9404
:101D50001B0A80E025C0892F827091FF21C02A32A2
:101D6000310540F40E94010A9093AC008093AB00CF
:101D70008A97C0F36AE287E091E00E940E0A8091A0
:101D8000AB009091AC008A979093AC008093AB002D
:101D90009601A701BE0187E091E00E940B0D81E052
:101DA000DF91CF911F910F91FF90EF90DF90CF9037
:101DB00008951F920F920FB60F9211248F9381E016
:101DC0008093AD008F910F900FBE0F901F901895CC
:101DD00011B88CE080B9089594EA96BF4FEF50E0B7
:101DE00060E070E006B607FC06C041505109610989
:101DF0007109C0F704C0452B462B472B11F191B157
:101E0000987F983011F09031F1F483B984E886BF5F
:101E10008FEF90E0A0E0B0E006B607FC05C00197A8
:101E2000A109B109C8F704C0892B8A2B8B2B69F053
:101E300091B1987F983159F081E0903449F480E075
:101E4000089581E0089581E0089581E0089580E09B
:101E5000089584E986BF80E090E006B604FE05C0E0
:101E60000196811521E09207C1F7089583B984E8AE
:101E700086BF8FEF90E0A0E0B0E006B607FC05C09B
:101E80000197A109B109C8F704C0892B8A2B8B2BB4
:101E900039F091B1987F81E0983219F480E008958B
:101EA00081E0089584EC86BF8FEF90E0A0E0B0E081
:101EB00006B607FC05C00197A109B109C8F704C01F
:101EC000892B8A2B8B2B11F083B1089580E0089524
:101ED00084E886BF8FEF90E0A0E0B0E006B607FC94
:101EE00005C00197A109B109C8F704C0892B8A2B45
:101EF0008B2B11F083B1089580E008951F920F920B
:101F00000FB60F9211242F938F939F93EF93FF930C
:101F10008BB12CB18871E091B000EF5FEF719091BF
:101F2000AF00E91739F0E093B000F0E0ED54FF4F57
:101F3000208301C082E08093AE00FF91EF919F91DA
:101F40008F912F910F900FBE0F901F9018951F9299
:101F50000F920FB60F9211248F939F93EF93FF93DD
:101F60009091B2008091B100981761F0E091B100BA
:101F7000EF5FEF71E093B100F0E0ED52FF4F808131
:101F80008CB901C05598FF91EF919F918F910F905F
:101F90000FBE0F901F9018951092B2001092B100D2
:101FA0001092B0001092AF0099231CF422E02BB9DC
:101FB0009F7790BD89B988E98AB986E880BD089580
:101FC0002091B2002F5F2F719091B1002917E1F39A
:101FD000E22FF0E0ED52FF4F80832093B200559A3C
:101FE0000895CF93DF93EC018881882331F0219607
:101FF0000E94E00F89918111FBCFDF91CF9108956D
:102000005058BB27AA270E9418100C9444120E9413
:10201000361238F00E943D1220F039F49F3F19F437
:1020200026F40C94F8110EF4E095E7FB0C94F211F1
:10203000E92F0E94551258F3BA17620773078407F5
:10204000950720F079F4A6F50C9477120EF4E0953C
:102050000B2EBA2FA02D0B01B90190010C01CA0162
:10206000A0011124FF27591B99F0593F50F4503E0D
:1020700068F11A16F040A22F232F342F4427585FFF
:10208000F3CF469537952795A795F0405395C9F717
:102090007EF41F16BA0B620B730B840BBAF09150CF
:1020A000A1F0FF0FBB1F661F771F881FC2F70EC06E
:1020B000BA0F621F731F841F48F487957795679541
:1020C000B795F7959E3F08F0B0CF9395880F08F02D
:1020D0009927EE0F9795879508959F939F77EEE345
:1020E00089379E0728F4E4E5F0E00E9422120CC034
:1020F0000E94AE119058A2EA2AED3FE049EC5FE35E
:102100000E9418100E9444120F9007FC90580895E6
:102110000E94361260F080E891E009F49EEF0E9480
:102120003D1228F040E851E071F45EEF0CC00C94D1
:10213000F8110C947712E92FE0780E94551240F3C1
:10214000092E052AB1F3261737074807590738F033
:102150000E2E07F8E02569F0E025E0640AC0EF6381
:1021600007F8009407FADB01B9019D01DC01CA01FF
:10217000AD01EF930E9416110E9444120E94CB10F1
:102180005F91552339F02BED3FE049E450FD49ECD8
:102190000C9401100895DF93DD27B92FBF7740E835
:1021A0005FE31616170648075B0718F4D92F0E943D
:1021B00083129F938F937F936F930E943E13E8E661
:1021C000F0E00E94FB110E9444122F913F914F9129
:1021D0005F910E949E12DD2351F09058A2EA2AEDF1
:1021E0003FE049EC5FE3D0785D270E941810DF9153
:1021F0000C9444120E94CE1108F481E008950E94CC
:1022000013110C9444120E943D1258F00E94361291
:1022100040F029F45F3F29F00C94F21151110C9415
:1022200078120C94F8110E94551268F39923B1F3B7
:10223000552391F3951B550BBB27AA2762177307EC
:10224000840738F09F5F5F4F220F331F441FAA1F80
:10225000A9F335D00E2E3AF0E0E832D0915050403C
:10226000E695001CCAF72BD0FE2F29D0660F771FEA
:10227000881FBB1F261737074807AB07B0E809F0D0
:10228000BB0B802DBF01FF2793585F4F3AF09E3F55
:10229000510578F00C94F2110C9478125F3FE4F33E
:1022A000983ED4F3869577956795B795F7959F5F98
:1022B000C9F7880F911D9695879597F90895E1E0E4
:1022C000660F771F881FBB1F621773078407BA0743
:1022D00020F0621B730B840BBA0BEE1F88F7E0959E
:1022E0000895E89409C097FB3EF490958095709509
:1022F00061957F4F8F4F9F4F9923A9F0F92F96E952
:10230000BB279395F695879577956795B795F111C6
:10231000F8CFFAF4BB0F11F460FF1BC06F5F7F4F63
:102320008F4F9F4F16C0882311F096E911C0772375
:1023300021F09EE8872F762F05C0662371F096E87E
:10234000862F70E060E02AF09A95660F771F881F4D
:10235000DAF7880F9695879597F90895DF93CF93CD
:102360001F930F938B01EC01E5E9F0E00E94FB1154
:102370000E9444129801AE018B01EC0160E070E014
:1023800080E89FE30E9400100E94FE129801AE01B7
:102390000F911F91CF91DF910C949E12990F00081D
:1023A000550FAA0BE0E8FEEF16161706E807F90727
:1023B000C0F012161306E407F50798F0621B730BC2
:1023C000840B950B39F40A2661F0232B242B252B43
:1023D00021F408950A2609F4A140A6958FEF811DE6
:1023E000811D089597F99F6780E870E060E0089587
:1023F0009FEF80EC0895DF93CF931F930F93FF928D
:10240000EF92DF927B018C01689406C0DA2EEF0117
:102410000E949E12FE01E894A59125913591459167
:102420005591A6F3EF010E941810FE019701A80133
:10243000DA9469F7DF90EF90FF900F911F91CF91A1
:10244000DF9108959F938F937F936F93FF93EF9303
:102450009B01AC010E948B12EF91FF910E94FB1136
:102460002F913F914F915F910C948B1200240A940D
:102470001616170618060906089500240A9412165F
:102480001306140605060895092E0394000C11F492
:10249000882352F0BB0F40F4BF2B11F460FF04C03F
:1024A0006F5F7F4F8F4F9F4F089557FD9058440F98
:1024B000551F59F05F3F71F04795880F97FB991FA3
:1024C00061F09F3F79F08795089512161306140660
:1024D000551FF2CF4695F1DF08C0161617061806ED
:1024E000991FF1CF86957105610508940895E894C8
:1024F000BB2766277727CB0197F908950E94CE1155
:1025000008F48FEF08959B01AC0160E070E080E873
:102510009FE30C94FF100E949E120C9444120E94A0
:10252000361238F00E943D1220F0952311F00C94E1
:10253000F2110C94F81111240C9478120E94551287
:1025400070F3959FC1F3950F50E0551F629FF00106
:10255000729FBB27F00DB11D639FAA27F00DB11D1F
:10256000AA1F649F6627B00DA11D661F829F2227A8
:10257000B00DA11D621F739FB00DA11D621F839F2F
:10258000A00D611D221F749F3327A00D611D231F05
:10259000849F600D211D822F762F6A2F11249F5753
:1025A00050409AF0F1F088234AF0EE0FFF1FBB1F56
:1025B000661F771F881F91505040A9F79E3F510515
:1025C00080F00C94F2110C9478125F3FE4F3983E83
:1025D000D4F3869577956795B795F795E7959F5FBF
:1025E000C1F7FE2B880F911D9695879597F9089551
:1025F00019F416F40C94F8110C9442130E945D1215
:10260000B8F39923C9F3B6F39F57550B87FF0E9480
:1026100050130024A0E640EA900180585695979503
:1026200028F4805C660F771F881F20F02617370775
:10263000480730F4621B730B840B202931294A2B85
:10264000A69517940794202531254A2758F7660F39
:10265000771F881F20F026173707480730F4620BD2
:10266000730B840B200D311D411DA09581F7B9011D
:10267000842F9158880F9695879508959B01AC01FA
:102680000C948B129F3F31F0915020F487957795F1
:102690006795B795880F911D9695879597F9089539
:1026A00091505040660F771F881FD2F70895A1E21E
:1026B0001A2EAA1BBB1BFD010DC0AA1FBB1FEE1FBC
:1026C000FF1FA217B307E407F50720F0A21BB30B07
:1026D000E40BF50B661F771F881F991F1A9469F783
:1026E00060957095809590959B01AC01BD01CF01DF
:1026F0000895EF920F931F93CF93DF93E80147FD67
:1027000002C034E001C034E1042E000C550B57FF29
:1027100003C0519541955109E32E022F242FAE019C
:102720000E949615CE01DF91CF911F910F91EF90EE
:1027300008950F931F93CF93DF938230910510F488
:1027400082E090E0E0914901F0914A0120E030E020
:10275000A0E0B0E0309719F14081518102811381EE
:1027600048175907C8F08417950769F4109731F096
:1027700012960C93129713961C9327C0009349014D
:1027800010934A0122C02115310519F04217530751
:1027900018F49A01BD01EF01DF01F801DBCF21152B
:1027A0003105F9F0281B390B2430310580F48A817A
:1027B0009B816115710521F0FB019383828304C025
:1027C00090934A0180934901FE01329644C0FE0174
:1027D000E20FF31F819391932250310939832883AB
:1027E0003AC02091470130914801232B41F42091B8
:1027F000620030916300309348012093470120919B
:102800006000309161002115310541F42DB73EB7CC
:102810004091640050916500241B350BE091470105
:10282000F0914801E217F307A0F42E1B3F0B281785
:10283000390778F0AC014E5F5F4F2417350748F039
:102840004E0F5F1F5093480140934701819391932E
:1028500002C0E0E0F0E0CF01DF91CF911F910F9136
:102860000895CF93DF93009709F481C0FC0132975C
:1028700013821282A0914901B0914A01109781F40C
:1028800020813181820F931F2091470130914801AF
:102890002817390751F5F0934801E093470167C0C5
:1028A000ED0120E030E0CE17DF0740F44A815B8184
:1028B0009E0141155105F1F0EA01F5CFD383C283A2
:1028C00040815181840F951FC817D90759F4888119
:1028D0009981840F951F0296918380838A819B81C1
:1028E000938382832115310529F4F0934A01E09303
:1028F00049013DC0E901FB83EA8349915991C40F25
:10290000D51FEC17FD0761F480819181840F951F1D
:102910000296E90199838883828193819B838A83CC
:10292000E0E0F0E012968D919C911397009719F0DA
:10293000FD01DC01F7CF8D919C9111979D012E5FD8
:102940003F4F820F931F2091470130914801281774
:10295000390769F4309729F410924A01109249011D
:1029600002C013821282B0934801A0934701DF9105
:10297000CF910895A0E0B0E0E0ECF4E10C94CC1726
:10298000EC01009721F4CB010E949913B4C0FC0123
:10299000E60FF71F9C0122503109E217F30708F4F4
:1029A000A8C0D9010D911C91119706171707B0F017
:1029B0000530110508F49BC0C801049786179707D6
:1029C00008F495C002501109061B170B01931193CF
:1029D0006D937C93CF010E94311489C05B01A01AD2
:1029E000B10A4C01800E911EA0914901B0914A019B
:1029F000612C712CE12CF12C109709F446C08D91BB
:102A00009C911197A815B905B1F56C0142E0C40E6F
:102A1000D11CCA14DB0478F14C018A189B086401AC
:102A200042E0C40ED11C1296BC9012971396AC9142
:102A3000B5E0CB16D10440F0B282A38391828082AC
:102A4000D9016D937C9309C00E5F1F4F800F911FBA
:102A5000F90191838083EB2DFA2FE114F10431F019
:102A6000D7011396FC93EE93129741C0F0934A015D
:102A7000E09349013CC06816790608F43C017D01E9
:102A800012960D90BC91A02DB7CF809147019091E7
:102A9000480188169906E1F466167706C8F4809115
:102AA000600090916100009741F48DB79EB740910E
:102AB000640050916500841B950BE817F907C8F472
:102AC000F0934801E0934701F901718360830FC0DF
:102AD000CB010E9499137C01009759F0A801BE0117
:102AE0000E948D15CE010E943114C70104C0CE0191
:102AF00002C080E090E0CDB7DEB7EEE00C94E817BE
:102B0000FB01DC0104C08D910190801921F441503A
:102B10005040C8F7881B990B0895FB01DC0102C0E7
:102B200001900D9241505040D8F70895A9E0B0E0CF
:102B3000ECE9F5E10C94CE176A01122FB02E2BE3CD
:102B4000201720F0FF24F394F00E02C02CE3F22EA5
:102B50000F2D27E0AE014F5F5F4F0E94F016BC01C2
:102B60004981842F8970813031F0E1FC06C0E0FE9C
:102B700006C090E205C09DE203C09BE201C090E068
:102B80005E2D507143FF3CC0911102C083E001C033
:102B900084E0811718F4212F281B01C020E0511177
:102BA0000BC0F601822F30E2882319F03193815057
:102BB000FBCFC20ED11C20E0992329F0D6019C93B3
:102BC000F60131966F01C6010396E2FE0AC03EE4AB
:102BD000D6013C9341E411964C93119712963C9385
:102BE00006C03EE6F601308341E641833283FC01B4
:102BF000322F40E2332309F442C041933150FACFDF
:102C000042FF44C0911102C083E001C084E08117FB
:102C100018F4212F281B01C020E051110BC0F60130
:102C2000822F30E2882319F031938150FBCFC20EFE
:102C3000D11C20E0992329F0D6019C93F60131960E
:102C40006F01C6010396E2FE0BC039E4D6013C9346
:102C50003EE411963C93119736E412963C9307C0DC
:102C600039E6F60130833EE6318336E63283FC01F5
:102C7000322F40E2332319F041933150FBCFFC0156
:102C8000E20FF11D10828EEF9FEFA6C021E030E031
:102C9000911102C020E030E0161617061CF4FB016B
:102CA000319602C0E1E0F0E02E0F3F1FBB2021F083
:102CB000EB2DF0E0319602C0E0E0F0E02E0F3F1F78
:102CC000E12FF0E02E173F071CF4121B212F01C04B
:102CD00020E08E2D887159F4F601822F30E288238E
:102CE00019F031938150FBCFC20ED11C20E0992303
:102CF00029F0D6019C93F60131966F0151110BC05A
:102D0000F601822F90E3882319F091938150FBCF35
:102D1000C20ED11C20E00F2D060F9A81342F307186
:102D200044FF03C0913309F40150101624F4093014
:102D300018F008E001C001E0AB0177FF02C040E0FD
:102D400050E0FB01E41BF50BA1E0B0E0AC0FBD1FB0
:102D5000EA0FFB1F8EE2A82E4B01801A91080B2D63
:102D600010E01195019511094F3FBFEF5B0721F46A
:102D7000D601AC9211966D01641775072CF084167C
:102D8000950614F4818101C080E3415051093196C8
:102D9000D60111967D014017510724F0D6018C937E
:102DA0006701E2CF6417750739F4963320F4953341
:102DB00019F4311101C081E3F6018083F701822FFC
:102DC00090E2882319F091938150FBCFF701E20F35
:102DD000F11D108280E090E02996ECE00C94EA1757
:102DE000283008F027E03327DA01990F311D87FDDD
:102DF000916000966105710539F432602E5F3D9354
:102E000030E32A95E1F708959F3F30F0803871054F
:102E1000610509F03C5F3C5F3D93913008F08068AC
:102E2000911DDF93CF931F930F93FF92EF92192F72
:102E3000987F9695E92F96959695E90FFF27E85E7E
:102E4000FE4F99273327EE24FF24A701E7010590C1
:102E50000894079428F4360FE71EF81E491F511DE9
:102E6000660F771F881F991F0694A1F70590079496
:102E700028F4E70EF81E491F561FC11D770F881F43
:102E8000991F661F0694A1F70590079428F4F80E81
:102E9000491F561FC71FD11D880F991F661F771F17
:102EA0000694A1F70590079420F4490F561FC71FF9
:102EB000D81F990F661F771F881F0694A9F7849162
:102EC0001095177041F0D695C79557954795F7948B
:102ED000E7941A95C1F7EEEBF0E068941590159120
:102EE00035916591959105907FE27395E118F10A0E
:102EF000430B560BC90BD009C0F7E10CF11E431F61
:102F0000561FC91FD01D7EF4703311F48A95E6CF89
:102F1000E894015030F0080F0AF40027021708F473
:102F2000202F2395022F7A3328F079E37D932A9579
:102F3000E9F710C07D932A9589F6069497956795D1
:102F4000379517951794E118F10A430B560BC90BE7
:102F5000D00998F023957E9173957A3308F070E349
:102F60007C932013B8F77E9170617D9330F0839548
:102F700071E37D9370E32A95E1F71124EF90FF90C0
:102F80000F911F91CF91DF91992787FD909508951B
:102F90002F923F924F925F926F927F928F929F9269
:102FA000AF92BF92CF92DF92EF92FF920F931F9357
:102FB000CF93DF93CDB7DEB7CA1BDB0B0FB6F89408
:102FC000DEBF0FBECDBF09942A88398848885F8448
:102FD0006E847D848C849B84AA84B984C884DF80B9
:102FE000EE80FD800C811B81AA81B981CE0FD11D9D
:102FF0000FB6F894DEBF0FBECDBFED010895F89473
:02300000FFCF00
:1030020000004B0120005374617274696E67205294
:10301200656164696E67204461746100446F6E6526
:103022002052656164696E67204461746100523A9E
:10303200002020004C005200530063616C696272F0
:0A3042006174696E672E2E2E0000E7
:00000001FF
