S01700004763634170706C69636174696F6E312E737265635B
S11300000C942B000C9453000C9453000C94530048
S11300100C9453000C9453000C9453000C94530010
S11300200C9453000C9453000C9453000C94530000
S11300300C9453000C9453000C9453000C945300F0
S11300400C9453000C9453000C9453000C945300E0
S11300500C945300FC0811241FBECFE5D8E0DEBF8A
S1130060CDBF10E0A0E6B0E0E2E5F6E102C0059005
S11300700D92AE3BB107D9F722E0AEEBB0E001C080
S11300801D92A53AB207E1F710E0CBE2D0E004C03C
S11300902197FE010E941009CA32D107C9F70E94B4
S11300A0F3080C94270B0C9400006295607F21E008
S11300B030E002C0220F331F8A95E2F7209528BB57
S11300C06BBB0895672B09F09FC0009711F4D89873
S11300D008958130910511F4D998089582309105DD
S11300E011F4DA9808958330910511F4DB9808959A
S11300F08430910511F4DC9808958530910511F44C
S1130100DD9808958630910511F4DE9808958730BE
S1130110910511F4DF9808958A30910511F4C0987F
S113012008958B30910511F4C19808958C30910590
S113013011F4C29808958D30910511F4C39808956F
S11301408E30910511F4C49808958F30910511F4FF
S1130150C59808958031910511F4C69808958131A8
S1130160910511F4C79808958431910511F4A89864
S113017008958531910511F4A99808958631910562
S113018011F4AA9808958731910511F4AB98089554
S11301908831910511F4AC9808958931910511F4D1
S11301A0AD9808958A31910511F4AE9808958B3174
S11301B0910511F4AF9808958E31910511F490983A
S11301C008958F31910511F4919808958032910525
S11301D011F4929808958132910511F49398089539
S11301E08232910511F4949808958332910511F4A3
S11301F0959808958432910511F4969808958597F9
S113020009F09FC097980895009711F4D89A08951B
S11302108130910511F4D99A08958230910511F431
S1130220DA9A08958330910511F4DB9A08958430A5
S1130230910511F4DC9A08958530910511F4DD9A45
S113024008958630910511F4DE9A0895873091055A
S113025011F4DF9A08958A30910511F4C09A089533
S11302608B30910511F4C19A08958C30910511F4E5
S1130270C29A08958D30910511F4C39A08958E3071
S1130280910511F4C49A08958F30910511F4C59A1B
S113029008958031910511F4C69A0895813191052C
S11302A011F4C79A08958431910511F4A89A089518
S11302B08531910511F4A99A08958631910511F4B7
S11302C0AA9A08958731910511F4AB9A089588315B
S11302D0910511F4AC9A08958931910511F4AD9A00
S11302E008958A31910511F4AE9A08958B319105E0
S11302F011F4AF9A08958E31910511F4909A0895EE
S11303008F31910511F4919A08958032910511F479
S1130310929A08958132910511F4939A0895823244
S1130320910511F4949A08958332910511F4959AE4
S113033008958432910511F4969A0895859709F4E5
S1130340979A0895CF93C82F80FF07C061E070E0AB
S113035082E290E00E94620006C060E070E082E207
S113036090E00E946200C1FF07C061E070E083E298
S113037090E00E94620006C060E070E083E290E0DA
S11303800E946200C2FF07C061E070E084E290E076
S11303900E94620006C060E070E084E290E00E9487
S11303A06200C3FF07C061E070E085E290E00E9454
S11303B0620006C060E070E085E290E00E946200A6
S11303C0CF910895CF93C82F60E070E08AE190E068
S11303D00E9462008C2F0E94A20161E070E08BE118
S11303E090E00E94620089EF90E00197F1F700C06D
S11303F0000060E070E08BE190E00E94620089EF11
S113040090E00197F1F700C00000CF91089580E0DB
S11304100E94E20181E00E94E2010895CF93C62F79
S1130420813059F480E8860F82958F700E94E20132
S11304308C2F8F700E94E2010CC0823051F480EC4A
S1130440860F82958F700E94E2018C2F8F700E941C
S1130450E201CF91089580E00E94A20187E893E130
S11304600197F1F700C0000083E00E94E20181EEF1
S113047094E00197F1F700C0000083E00E94E201DC
S11304808DEB9AE00197F1F700C0000083E00E9431
S1130490E20182E00E94E20182E00E94E20188E03F
S11304A00E94E20180E00E94E2018CE00E94E201ED
S11304B080E00E94E20186E00E94E2010895CF9369
S11304C0C82F61E070E08AE190E00E9462008C2F06
S11304D082958F700E94A20161E070E08BE190E050
S11304E00E94620089EF90E00197F1F700C00000DC
S11304F060E070E08BE190E00E94620089EF90E0A0
S11305000197F1F700C000008C2F8F700E94A201A8
S113051061E070E08BE190E00E94620089EF90E07E
S11305200197F1F700C0000060E070E08BE190E01B
S11305300E94620089EF90E00197F1F700C000008B
S1130540CF910895CF93DF93EC018881882331F014
S113055021960E945F0289918111FBCFDF91CF9197
S11305600895EF92FF920F931F93CF93DF93EC01C3
S113057084E090E09C878B878FE090E09E878D8756
S113058081E08F87FE0170969E01255D3F4F1182A9
S1130590108213821282848339962E173F07B9F78B
S11305A0FE01BF96CE018D519F4F1182108213829E
S11305B012821482168215823996E817F907A9F770
S11305C0198218821B821A8281E088871A8619860A
S11305D084E090E00E9416099D838C8384E090E07F
S11305E00E9416099F838E837E0100E010E00E9422
S11305F0830AF70187709078992324F40197886F10
S11306009F6F0196918B808B138A128A148A168BA2
S1130610058B108E178A89E0E80EF11C0C501E4FD2
S11306200C3D85E0180719F7DE019F96FE01ED5198
S1130630FF4F11961C921E9213961C921E921297B3
S113064014961C92149716961C921E92159718963F
S11306501C921E9217971996AE17BF0751F79E0169
S11306602D513E4FCF01409611921192E817F90790
S1130670D9F7FC0128173907A9F7DF91CF911F910A
S11306800F91FF90EF900895AF92BF92CF92DF92B7
S1130690EF92FF920F931F93CF93DF93CDB7DEB703
S11306A0C35ED1400FB6F894DEBF0FBECDBF84E069
S11306B090E09D878C878FE090E09F878E8781E014
S11306C0888B1A8A198A1C8A1B8A8D8B1B8E1A8E18
S11306D01D8E1C8E8E8F1CA21BA21EA21DA28FA378
S11306E07E0180E3E80EF11C8E010C511F4FF701CF
S11306F01182108213821282148216821582399614
S11307000E171F07A9F788C00E94830AF501877096
S11307109078992324F40197886F9F6F0196918BA9
S1130720808B138A128A148AD68AC58A108E178AF5
S113073099E0A90EB11CECE0CE1AEEEFDE0AFCED56
S1130740CF16F5E0DF0601F7F7011182108213825C
S1130750128214821682158210861782F9E0EF0E37
S1130760F11C0E151F0581F79E012C513E4FC80147
S11307704096F801119211928F018E179F07C9F7C5
S11307808C012817390799F783EE91E0FE01319621
S1130790AEEBB0E001900D920197E1F7EEEBF0E0E3
S11307A06585768583859485FB01EE0FFF1FEE0F2B
S11307B0FF1FEE0FFF1FDF01A80FB91FAA0FBB1FFA
S11307C0AF55BE4F43E050E04D935C93DC0111976D
S11307D0AE0FBF1FAA0FBB1FAF55BE4F4D935C9307
S11307E09C012F5F3F4FE20FF31FEE0FFF1FEF55EA
S11307F0FE4F51834083FB013197EE0FFF1FEE0F35
S1130800FF1FEE0FFF1FE80FF91FEE0FFF1FEF553D
S1130810FE4F518340831AC01A8219821C821B82A4
S113082081E089871B861A8684E090E00E9416097D
S11308309E838D8384E090E00E94160998878F83BD
S1130840CE0101965C01C12CD12C5ECFCD51DE4F7F
S11308500FB6F894DEBF0FBECDBFDF91CF911F91CD
S11308600F91FF90EF90DF90CF90BF90AF900895DD
S11308700E94440388EF8ABB8FEF87BB81BB84BB94
S11308800E942B020E94070260E081E00E940E0297
S113089082E790E00E94A20260E082E00E940E02E1
S11308A08BE790E00E94A20208952F923F924F920C
S11308B05F926F927F928F929F92AF92BF92CF92EC
S11308C0DF92EF92FF920F931F93CF93DF93CDB7F5
S11308D0DEB76C970FB6F894DEBF0FBECDBF909312
S11308E0EA008093E9000F2EFEEBAF2EF0E0BF2E5E
S11308F0F02D75010F2EF8EBCF2EFBE0DF2EF02D3F
S1130900552453946894882481F8912C8701D70145
S113091055964D915C9156974F5F5F4F9A0136956E
S113092027953695279536952795A9EDB5E10E942B
S1130930010996958795929582958F7089279F7066
S113094089278C9D90018D9D300D9C9D300D112427
S11309504217530721F0F701568B458B20C0D7016E
S113096056961C921E92559754968C91811117C0DD
S11309700E94830A87709078992324F40197886FE2
S11309809F6F0196F801918B808B138A128A548A87
S1130990880F991FFC01EF55FE4F91828082D80188
S11309A057968D919C915897019658969C938E9347
S11309B057978039914008F44FC0F80184898823FF
S11309C009F44AC080899189A289B3899D01918BD8
S11309D0808BAD014F5F5F4F4F705078552334F4D7
S11309E041505109406F5F6F4F5F5F4FF801538B68
S11309F0428B108E178AFD01EE0FFF1FEE0FFF1FB3
S1130A00EE0FFF1F8E0F9F1F880F991FFC01EF55DC
S1130A10FE4F118210822F30310521F4D8015496F3
S1130A201C921AC0F80184898823B1F00288F389E2
S1130A30E02DD80150968D919C915197EE0FFF1F98
S1130A40EE0FFF1FEE0FFF1FE80FF91FEE0FFF1F42
S1130A50EF55FE4F91828082B9E0EB0EF11CE9ED77
S1130A60EE16E0E0FE0609F051CF4091E900509106
S1130A70EA009A013695279536952795ABE3BDE6AE
S1130A800E94010996958795929582958F70892782
S1130A909F7089276CE271E0869F9001879F300DDB
S1130AA0969F300D11244217530721F481E080935F
S1130AB0CD0005C08091CD00882309F403C189B31A
S1130AC08370813009F488C0823009F0FBC0EEEBFA
S1130AD0F0E023853485C584D684B9016150710959
S1130AE01616170614F0CB0102C081E090E0D9017C
S1130AF0A81BB90BCD010F2EFEEBEF2EF0E0FF2E5D
S1130B00F02DF701B487A387D601AA0FBB1FAA0F44
S1130B10BB1FAA0FBB1F8D01020F131F000F111F54
S1130B200F551E4FF801118210826A0F7B1F660F4A
S1130B30771F6F557E4FFB0111821082B9016F5FE1
S1130B407F4F6A0F7B1F660F771F6F557E4FFB0128
S1130B5011821082F60131978F01000F111F000FCF
S1130B60111F000F111F200F311F220F331F2F558C
S1130B703E4FF90111821082BD01680F791F660F83
S1130B80771F6F557E4F23E030E0FB0131832083D4
S1130B90BC01615071096A0F7B1F660F771F6F5587
S1130BA07E4FFB0131832083BC016F5F7F4FA60F13
S1130BB0B71FAA0FBB1FAF55BE4F2D933C93F8012F
S1130BC0E80FF91FEE0FFF1FEF55FE4F318320830F
S1130BD0D7011F961C9276C0EEEBF0E02385348596
S1130BE06585768586E090E0821B930B18161906BE
S1130BF014F481E090E0820F931F0EEB10E0F801F3
S1130C0094878387DB01AA0FBB1FAA0FBB1FAA0F00
S1130C10BB1FFD01E20FF31FEE0FFF1FEF55FE4F49
S1130C2011821082F9013197EA0FFB1FEE0FFF1FAB
S1130C30EF55FE4F11821082F9013196EA0FFB1F26
S1130C40EE0FFF1FEF55FE4F1182108261507109A4
S1130C50660F771F660F771F660F771FFB01E20F82
S1130C60F31FEE0FFF1FEF55FE4F11821082FD019F
S1130C70E80FF91FEE0FFF1FEF55FE4F23E030E0A2
S1130C8031832083FC013197EA0FFB1FEE0FFF1F16
S1130C90EF55FE4F31832083FC013196EA0FFB1F91
S1130CA0EE0FFF1FEF55FE4F31832083FB01E80F4A
S1130CB0F91FEE0FFF1FEF55FE4F31832083D8013C
S1130CC01F961C929A013695279536952795A1EB88
S1130CD0BBE20E9401090024880F991F001C880FA1
S1130CE0991F001C892F902D6CED75E0869F900153
S1130CF0879F300D969F300D11244217530721F41E
S1130D0081E08093C60005C08091C600882309F461
S1130D1053C089B3CA9929C24FC02081211146C04A
S1130D2002C080E090E0FC01EE0FFF1FEE0FFF1FFA
S1130D30EE0FFF1F8E0F9F1FDC01A351BF4F2EEB41
S1130D4030E0FC01E254FF4F17AA16AA15AA14AA10
S1130D5081E083ABF901458556854250510983856D
S1130D60948511969C938E9313965C934E9312974D
S1130D70FA01EE0FFF1FEE0FFF1FEE0FFF1FE80F2C
S1130D80F91FEE0FFF1FEF55FE4F83E090E09183B4
S1130D908083F901818592858A30910514F48AE073
S1130DA090E0928781871092C60006C0019639961A
S1130DB08431910509F0B1CF0F2EFDEE8F2EF0E0B6
S1130DC09F2EF02D01EA11E0F4010F2EF3E0CF2E57
S1130DD0D12CF02D0F2EFFE0EF2EF02DF12C9F01E2
S1130DE0858196810196968385838639910508F4D9
S1130DF057C04080518062807380A30141505109E3
S1130E00C0F44481442381F0A301440F551F440FCF
S1130E10551F440F551F440D551D440F551F4F5565
S1130E205E4FDA011D921C92D90114961C924E2D2C
S1130E305F2DD90111965C924E9213965C934E935A
S1130E40129716961C921E92159714964C91442351
S1130E5039F1A301440F551F440F551F440F551F6B
S1130E60C201840F951F880F991FDC01AF55BE4F37
S1130E701D921C92D90112964D915C9113978D91FC
S1130E809C91DA01AA0FBB1FAA0FBB1FAA0FBB1F9D
S1130E90A80FB91FAA0FBB1FAF55BE4FCD92DC924E
S1130EA03996E017F10709F09ACFEEEBF0E02081D4
S1130EB031813A8F298F428153815C8F4B8F9F01FF
S1130EC0AF01F4011901D90154968C918823B9F129
S1130ED084818823A1F1C080D180E280F380D10194
S1130EE050964D905D906D907C905397C414D504AA
S1130EF031F5E614F70419F5DA018D919C911197F7
S1130F0001968D939C93D1015096CD90DD90ED90F8
S1130F10FC905397C701880F991F880F991F880F5A
S1130F20991FC80ED91EC601880F991F8F559E4F51
S1130F30DC011D921C921482D10154961C923996A4
S1130F40E017F10709F0BFCF275F3F4FB0E0293D1D
S1130F503B0709F0B6CF22242A94322C0F2EFEEB45
S1130F604F2EF0E05F2EF02D4E01E9E18E0E911C24
S1130F706501D50154968C918823B9F188E0EAE69D
S1130F80F0E0DE01519601900D928A95E1F71A8204
S1130F9019823C822B821E821D8218861F82F201D6
S1130FA083859485A585B685AC01BD01F50180894D
S1130FB09189A289B3899C017D01FE017196DE01AC
S1130FC0119681919191840F951F8217930749F48B
S1130FD08D919C911197860F971F8E159F0509F48B
S1130FE0CEC01296E815F90561F7F9E0AF0EB11C11
S1130FF029EDA21620E0B20609F0BACF8091BE0016
S11310009091BF00498D5A8D4817590709F4C7C0FC
S1131010EEEBF0E0218532852431310514F424E12E
S113102030E0328721872091C0003091C1004B8D80
S11310305C8D2417350759F0EEEBF0E041855285BD
S11310404E31510514F44EE150E05287418725306A
S1131050310550F42EE0E7E8F0E0DE01119601904E
S11310600D922A95E1F723C02A30310550F42DE082
S1131070E5E9F0E0DE01119601900D922A95E1F781
S113108016C02F30310550F423E1E2EAF0E0DE012E
S1131090119601900D922A95E1F709C029E0E5EB3C
S11310A0F0E0DE01119601900D922A95E1F70F2EE2
S11310B0FEEBEF2EF0E0FF2EF02DD70114966D918C
S11310C07C9115974AE00E949E0AF7016681778118
S11310D04AE0828193810E949E0AD7011496ED9181
S11310E0FC91159701900020E9F731978CE290E28A
S11310F091838083128216966D917C911797149632
S11311008D919C9115970E94930AF701E480F580D4
S11311100E94070260E081E00E940E02C7010E9463
S1131120A20260E082E00E940E02CE0101960E94BB
S1131130A20232C0650110E0D6018D919D916D012E
S1131140892B41F06E2D812F0E945500B1E2BA9592
S1131150F1F700001F5F183079F7E0E1AE0EB11C23
S1131160E394F0E1EF12E6CF25C08091F1008823EB
S113117009F4D7CDEAEFF0E081E090E0CECDD201E2
S113118012968D919C911397019613969C938E932E
S11311901297F601148A29CFE12C5801CBCF209164
S11311A0C0003091C1004B8D5C8D4217530709F08C
S11311B043CFF2CF6C960FB6F894DEBF0FBECDBF0F
S11311C0DF91CF911F910F91FF90EF90DF90CF901F
S11311D0BF90AF909F908F907F906F905F904F9053
S11311E03F902F9008950E943804C0E0D0E02196EB
S11311F0CE010E945504FBCF8EEB90E00E94B10219
S11312000895A29FB001B39FC001A39F700D811DDB
S11312101124911DB29F700D811D1124911D0895FB
S1131220EE0FFF1F0590F491E02D09940F931F9387
S1131230CF93DF938230910510F482E090E0E09147
S1131240A302F091A40220E030E0A0E0B0E03097E7
S113125019F1408151810281138148175907C8F05F
S11312608417950769F4109731F012960C9312972E
S113127013961C9327C00093A3021093A40222C0C8
S11312802115310519F04217530718F49A01BD01CD
S1131290EF01DF01F801DBCF21153105F9F0281B3F
S11312A0390B2430310580F48A819B8161157105E5
S11312B021F0FB019383828304C09093A402809362
S11312C0A302FE01329644C0FE01E20FF31F819394
S11312D0919322503109398328833AC02091A10285
S11312E03091A202232B41F42091620030916300DB
S11312F03093A2022093A1022091600030916100FA
S11313002115310541F42DB73EB740916400509149
S11313106500241B350BE091A102F091A202E217B3
S1131320F307A0F42E1B3F0B2817390778F0AC0104
S11313304E5F5F4F2417350748F04E0F5F1F5093E1
S1131340A2024093A1028193919302C0E0E0F0E0F5
S1131350CF01DF91CF911F910F910895CF93DF9328
S1131360009709F481C0FC01329713821282A09184
S1131370A302B091A402109781F420813181820FDD
S1131380931F2091A1023091A2022817390751F529
S1131390F093A202E093A10267C0ED0120E030E0E7
S11313A0CE17DF0740F44A815B819E014115510548
S11313B0F1F0EA01F5CFD383C28340815181840FD8
S11313C0951FC817D90759F488819981840F951FEF
S11313D00296918380838A819B81938382832115E2
S11313E0310529F4F093A402E093A3023DC0E9017E
S11313F0FB83EA8349915991C40FD51FEC17FD076C
S113140061F480819181840F951F0296E90199838B
S11314108883828193819B838A83E0E0F0E0129643
S11314208D919C911397009719F0FD01DC01F7CF82
S11314308D919C9111979D012E5F3F4F820F931FB9
S11314402091A1023091A2022817390769F430973C
S113145029F41092A4021092A30202C013821282F1
S1131460B093A202A093A102DF91CF9108958F922D
S11314709F92AF92BF92CF92DF92EF92FF92CF935F
S1131480DF93EC01688179818A819B816115710503
S11314908105910521F464E279ED8BE597E02DE176
S11314A033EF41E050E00E94D30A49015A019B0105
S11314B0AC01A7EAB1E40E94F20A6B017C01ACEE34
S11314C0B4EFA50194010E94000BDC01CB018C0D4B
S11314D09D1DAE1DBF1DB7FF03C00197A109B048F4
S11314E088839983AA83BB839F77DF91CF91FF90F1
S11314F0EF90DF90CF90BF90AF909F908F90089522
S11315000E94370A089586E690E00E94370A0895FB
S1131510A0E0B0E08093660090936700A093680019
S1131520B09369000895FB01DC010D900020E9F7F8
S1131530119701900D920020E1F70895BB274A30DE
S113154031F4992322F4BDE2909581959F4F0C9438
S1131550AA0ABB27FB015527AA27880F991FAA1F90
S1131560A41710F0A41B83955051B9F7A05DAA33BA
S113157008F0A95DA193009779F7B111B193119285
S1131580CB010C94C30ADC01FC01672F7191772312
S1131590E1F7329704C07C916D9370836291AE172A
S11315A0BF07C8F30895052E97FB1EF400940E940C
S11315B0EA0A57FD07D00E94050B07FC03D04EF43E
S11315C00C94EA0A50954095309521953F4F4F4F22
S11315D05F4F089590958095709561957F4F8F4FDB
S11315E09F4F08950E940109A59F900DB49F900DEF
S11315F0A49F800D911D11240895B7FF0C94F20A45
S11316000E94F20A821B930B0895A1E21A2EAA1BD0
S1131610BB1BFD010DC0AA1FBB1FEE1FFF1FA2179E
S1131620B307E407F50720F0A21BB30BE40BF50B9B
S1131630661F771F881F991F1A9469F76095709524
S1131640809590959B01AC01BD01CF010895F8945C
S1051650FFCFC6
S11316520000A50220000100000000000000FFFFBE
S1131662010053636F72653A2030004865616C74FF
S1131672682046756C6C0047726561742068656108
S11316826C74682100476F6F64206865616C7468CC
S11316922100437269746963616C206865616C74CA
S11116A268203A280044656164203A27280035
S9030000FC
