:100000000C942B000C9453000C9453000C9453004C
:100010000C9453000C9453000C9453000C94530014
:100020000C9453000C9453000C9453000C94530004
:100030000C9453000C9453000C9453000C945300F4
:100040000C9453000C9453000C9453000C945300E4
:100050000C945300D00911241FBECFE5D8E0DEBFB9
:10006000CDBF10E0A0E6B0E0E8EBF5E102C00590FE
:100070000D92A63CB107D9F722E0A6ECB0E001C092
:100080001D92AC3AB207E1F710E0CBE2D0E004C039
:100090002197FE010E94E409CA32D107C9F70E94E4
:1000A000C7090C94DA0A0C9400009FE0961B4235B5
:1000B00021F488608295807F03C0877F8295807F4E
:1000C000892B88BB0895672B09F09FC0009711F416
:1000D000D89808958130910511F4D9980895823007
:1000E000910511F4DA9808958330910511F4DB98A5
:1000F00008958430910511F4DC98089585309105B8
:1001000011F4DD9808958630910511F4DE98089574
:100110008730910511F4DF9808958A30910511F424
:10012000C09808958B30910511F4C19808958C30D2
:10013000910511F4C29808958D30910511F4C3987A
:1001400008958E30910511F4C49808958F3091056B
:1001500011F4C59808958031910511F4C698089559
:100160008131910511F4C79808958431910511F4F6
:10017000A89808958531910511F4A99808958631BC
:10018000910511F4AA9808958731910511F4AB985F
:1001900008958831910511F4AC980895893191053D
:1001A00011F4AD9808958A31910511F4AE9808952F
:1001B0008B31910511F4AF9808958E31910511F4AA
:1001C000909808958F31910511F491980895803297
:1001D000910511F4929808958132910511F4939844
:1001E00008958232910511F494980895833291050F
:1001F00011F4959808958432910511F49698089514
:10020000859709F09FC097980895009711F4D89AA0
:1002100008958130910511F4D99A0895823091059D
:1002200011F4DA9A08958330910511F4DB9A089558
:100230008430910511F4DC9A08958530910511F40C
:10024000DD9A08958630910511F4DE9A089587307D
:10025000910511F4DF9A08958A30910511F4C09A3E
:1002600008958B30910511F4C19A08958C30910551
:1002700011F4C29A08958D30910511F4C39A08952E
:100280008E30910511F4C49A08958F30910511F4C0
:10029000C59A08958031910511F4C69A0895813167
:1002A000910511F4C79A08958431910511F4A89A23
:1002B00008958531910511F4A99A08958631910523
:1002C00011F4AA9A08958731910511F4AB9A089513
:1002D0008831910511F4AC9A08958931910511F492
:1002E000AD9A08958A31910511F4AE9A08958B3133
:1002F000910511F4AF9A08958E31910511F4909AF9
:1003000008958F31910511F4919A089580329105E5
:1003100011F4929A08958132910511F4939A0895F7
:100320008232910511F4949A08958332910511F463
:10033000959A08958432910511F4969A08958597B7
:1003400009F4979A0895CF93C82F80FF07C061E002
:1003500070E082E290E00E94630006C060E070E01E
:1003600082E290E00E946300C1FF07C061E070E09C
:1003700083E290E00E94630006C060E070E083E2E8
:1003800090E00E946300C2FF07C061E070E084E279
:1003900090E00E94630006C060E070E084E290E0BC
:1003A0000E946300C3FF07C061E070E085E290E057
:1003B0000E94630006C060E070E085E290E00E9469
:1003C0006300CF910895CF93C82F60E070E08AE179
:1003D00090E00E9463008C2F0E94A30161E070E016
:1003E0008BE190E00E94630089EF90E00197F1F7C4
:1003F00000C0000060E070E08BE190E00E946300CC
:1004000089EF90E00197F1F700C00000CF910895C7
:1004100080E00E94E30181E00E94E3010895CF9310
:10042000C62F813059F480E8860F82958F700E9424
:10043000E3018C2F8F700E94E3010CC0823051F4D5
:1004400080EC860F82958F700E94E3018C2F8F7055
:100450000E94E301CF91089580E00E94A30187E804
:1004600093E10197F1F700C0000083E00E94E301EF
:1004700081EE94E00197F1F700C0000083E00E9454
:10048000E3018DEB9AE00197F1F700C0000083E0F3
:100490000E94E30182E00E94E30182E00E94E30106
:1004A00088E00E94E30180E00E94E3018CE00E946A
:1004B000E30180E00E94E30186E00E94E3010895E9
:1004C000CF93C82F61E070E08AE190E00E94630062
:1004D0008C2F82958F700E94A30161E070E08BE108
:1004E00090E00E94630089EF90E00197F1F700C06F
:1004F000000060E070E08BE190E00E94630089EF13
:1005000090E00197F1F700C000008C2F8F700E94DF
:10051000A30161E070E08BE190E00E94630089EF4D
:1005200090E00197F1F700C0000060E070E08BE11F
:1005300090E00E94630089EF90E00197F1F700C01E
:100540000000CF910895CF93DF93EC018881882339
:1005500031F021960E94600289918111FBCFDF91D9
:10056000CF910895EF92FF920F931F93CF93DF9354
:10057000EC0184E090E09F878E878FE090E0998B7C
:10058000888B81E08A8BFE0173969E01225D3F4F2E
:100590001182108213821282848339962E173F07AC
:1005A000B9F7FE01F296CE018A519F4F1182108257
:1005B000138212821482168215823996E817F9077F
:1005C000A9F71D821C82198218821B821A8281E07F
:1005D0008D878E837E0100E010E00E94360AF701CD
:1005E00087709078992324F40197886F9F6F019604
:1005F000948B838B168A158A178A118F008F138E1E
:10060000128E89E0E80EF11C0C501E4F0C3D85E067
:10061000180719F7DE01D296FE01EA51FF4F119635
:100620001C921E9213961C921E92129714961C9264
:10063000149716961C921E92159718961C921E924D
:1006400017971996AE17BF0751F79E012A513E4FD3
:10065000CF01409611921192E817F907D9F7FC01E2
:1006600028173907A9F7DF91CF911F910F91FF90BC
:10067000EF900895AF92BF92CF92DF92EF92FF92E8
:100680000F931F93CF93DF93CDB7DEB7C65ED140F4
:100690000FB6F894DEBF0FBECDBF84E090E0988B1C
:1006A0008F878FE090E09A8B898B81E08B8B1D8AFE
:1006B0001C8A1F8A1E8A888F1E8E1D8E18A21F8E6E
:1006C00089A31FA21EA219A618A68AA77E0183E3EA
:1006D000E80EF11C8E0109511F4FF70111821082A3
:1006E000138212821482168215823996E017F1075E
:1006F000A9F781C00E94360AF50187709078992386
:1007000024F40197886F9F6F0196948B838B168AD0
:10071000158A178AD18EC08E138E128E99E0A90E7B
:10072000B11CECE0CE1AEEEFDE0AFCEDCF16F5E0E0
:10073000DF0601F7F7011182108213821282148200
:100740001682158210861782F9E0EF0EF11C0E1545
:100750001F0581F79E0129513E4FC8014096F801BF
:10076000119211928F018E179F07C9F78C01821782
:10077000930799F786EE91E0FE013196A6ECB0E082
:1007800001900D920197E1F7E6ECF0E04089518984
:1007900026853785CA01880F991F880F991F880FF2
:1007A000991F820F931FFC01EE0FFF1FE455FE4FB0
:1007B00063E070E071836083FC01EE0FFF1FE6557C
:1007C000FE4F71836083880F991FFC01E255FE4F35
:1007D00071836083FA013197EE0FFF1FEE0FFF1F49
:1007E000EE0FFF1FE20FF31FEE0FFF1FE455FE4F4A
:1007F000718360830FC01E821D821A8219821C823F
:100800001B8281E08E878F83CE0101965C01C12C13
:10081000D12C70CFCA51DE4F0FB6F894DEBF0FBE99
:10082000CDBFDF91CF911F910F91FF90EF90DF909F
:10083000CF90BF90AF9008950E943A0388EF8ABB93
:100840008FEF87BB81BB84BB0E942C020E940802F1
:1008500060E081E00E940F028CE690E00E94A3021B
:1008600060E082E00E940F028BE790E00E94A3020A
:1008700008952F923F924F925F926F927F928F9244
:100880009F92AF92BF92CF92DF92EF92FF920F931F
:100890001F93CF93DF93CDB7DEB7AA970FB6F89427
:1008A000DEBF0FBECDBF9C019091CC00992309F40F
:1008B0004DC53093F5002093F4000F2EF6ECAF2ECB
:1008C000F0E0BF2EF02D0F2EF1EE2F2EF0E03F2E98
:1008D000F02D75010F2EFCEDCF2EF5E0DF2EF02D63
:1008E000772473946894882481F8912C6894662402
:1008F00062F8512C8701D70158964D915C91599718
:100900004F5F5F4F9A013695279536952795A1EB56
:10091000BBE20E94D5090024880F991F001C880F94
:10092000991F001C892F902D8C9D90018D9D300D5D
:100930009C9D300D11244217530721F0F701518F70
:10094000408F25C0D70159961C921E9258975796F2
:100950008C9181111CC00E94360A8770907899236F
:1009600024F40197886F9F6F01968330910511F4ED
:10097000862D952DF801948B838B168A158A778A9C
:10098000880F991FFC01E455FE4F91828082D801A7
:100990005A968D919C915B9701965B969C938E9352
:1009A0005A978C32914008F44FC0F8018789882308
:1009B00009F44AC083899489A589B6899D01948BDD
:1009C000838BAD014F5F5F4F4F705078552334F4E8
:1009D00041505109406F5F6F4F5F5F4FF801568B79
:1009E000458B138E128EFD01EE0FFF1FEE0FFF1FC2
:1009F000EE0FFF1F8E0F9F1F880F991FFC01E455FC
:100A0000FE4F118210822F30310521F4D801579604
:100A10001C921AC0F80187898823B1F00588F689ED
:100A2000E02DD80153968D919C915497EE0FFF1FA6
:100A3000EE0FFF1FEE0FFF1FE80FF91FEE0FFF1F56
:100A4000E455FE4F91828082B9E0EB0EF11CE21476
:100A5000F30409F04FCF4091F4005091F5009A0152
:100A60003695279536952795ABE7B4E10E94D509D1
:100A70009695879564E6689F9001699F300D1124D3
:100A80004217530721F481E08093D80005C080917C
:100A9000D800882309F4EDC089B38370813009F44C
:100AA00075C0823009F0E5C0E6ECF0E026853785B8
:100AB00080889188F90131971E161F0614F0CF0126
:100AC00002C081E090E0B901681B790B0F2EF6ECB3
:100AD000CF2EF0E0DF2EF02DD6011F967C936E9383
:100AE0001E97C401880F991F880F991F880F991F9F
:100AF0008C01020F131F7801EE0CFF1CD701A455C7
:100B0000BE4F1D921C92E80FF91FEE0FFF1FE45518
:100B1000FE4F11821082F701E255FE4F11821082C2
:100B2000D4011197AA0FBB1FAA0FBB1FAA0FBB1F8F
:100B3000FD01E20FF31FEE0FFF1FE455FE4F118280
:100B40001082860F971FFC01EE0FFF1FE455FE4F2A
:100B500023E030E031832083FC01EE0FFF1FE655D8
:100B6000FE4F31832083880F991FFC01E255FE4F11
:100B700031832083FD01E60FF71FEE0FFF1FE455C1
:100B8000FE4F31832083F601128A73C0E6ECF0E059
:100B900066857785C088D18886E090E0861B970BB4
:100BA0001816190614F481E090E0860F971F0F2E97
:100BB000F6ECEF2EF0E0FF2EF02DD7011F969C9360
:100BC0008E931E979601220F331F220F331F220F81
:100BD000331FD901A60FB71F8D01000F111F045538
:100BE0001E4FF801118210828D01000F111F065552
:100BF0001E4FF80111821082AA0FBB1FA255BE4FD3
:100C00001D921C92F6013197DF01AA0FBB1FAA0F9C
:100C1000BB1FAA0FBB1FFD01E60FF71FEE0FFF1F43
:100C2000E455FE4F11821082280F391FF901EE0F93
:100C3000FF1FE455FE4F63E070E071836083F901AC
:100C4000EE0FFF1FE655FE4F71836083220F331FA7
:100C5000F901E255FE4F71836083FD01E80FF91F32
:100C6000EE0FFF1FE455FE4F71836083D70152964C
:100C70001C929A01329522952F7023273F702327CB
:100C8000AEE3BAE00E94D50920E931E0FC01E29F21
:100C9000C001E39F900DF29F900D11244817590752
:100CA00021F481E08093D30005C08091D300882394
:100CB00009F44AC089B3CA990FC346C020812111E3
:100CC0003DC002C080E090E0FC01EE0FFF1FEE0F80
:100CD000FF1FEE0FFF1F8E0F9F1FAC0148505F4F8D
:100CE000A6ECB0E0FC01EA53FF4F12AE11AE10AE1D
:100CF00017AA81E086AB50962D913C9151972250D6
:100D000031091E968D919C911F97FA0191838083E2
:100D100033832283F901EE0FFF1FEE0FFF1FEE0F4B
:100D2000FF1FE80FF91FEE0FFF1FE455FE4F83E092
:100D300090E0918380831D961C9206C0019639969F
:100D40008431910509F0BACF0F2EF8EF8F2EF0E025
:100D50009F2EF02D4CEA51E0F40103E010E00F2E3D
:100D6000FFE0CF2EF02DD12CBF0185819681019619
:100D7000968385838639910508F456C0408051805A
:100D800062807380C3010197C0F48481882381F05D
:100D9000C301880F991F880F991F880F991F840D11
:100DA000951D880F991F84559E4FDC011D921C9242
:100DB000DB0114961C928C2D9D2DDB0111965C920B
:100DC0004E9213969C938E93129716961C921E9297
:100DD000159714968C91882339F1C301880F991FB8
:100DE000880F991F880F991F480E591EC201880F3E
:100DF000991F84559E4FDC011D921C92DB011296B7
:100E00002D913C9113978D919C91D901AA0FBB1FF5
:100E1000AA0FBB1FAA0FBB1FA80FB91FAA0FBB1F8A
:100E2000A455BE4F0D931C933996E417F50709F0AE
:100E30009BCFE6ECF0E0208131813AA729A76281BF
:100E4000738178A76FA3BF01CF01F4017EA36DA3C7
:100E5000DB0157962C91222309F447C014811123FA
:100E600009F443C0C080D180E280F380ADA1BEA16F
:100E700053964D905D906D907C905697C414D50418
:100E8000A1F5E614F70489F5DC010D911C91119789
:100E90000F5F1F4F11961C930E9314960D911C918A
:100EA00015970F5F1F4F15961C930E931497ADA1C6
:100EB000BEA15396CD90DD90ED90FC9056978701A2
:100EC000000F111F000F111F000F111FC00ED11EA8
:100ED0008601000F111F04551E4FD8011D921C9250
:100EE0001482ADA1BEA157961C923996E417F5075E
:100EF00009F0AECF675F7F4F2616370609F0A5CF02
:100F0000CC24CA94DC2C0F2EF6EC6F2EF0E07F2E52
:100F1000F02D4E01B9E18B0E911C44244394512CC9
:100F2000BEA2ADA2F5018789882309F4B9C088E083
:100F3000E4E6F0E0DE01519601900D928A95E1F72A
:100F40001A821982DC82CB821E821D8218861F8241
:100F5000F30186859785A089B189BC018D01F501D2
:100F600083899489A589B6899C017D01FE017196CA
:100F7000DE01119681919191860F971F8217930739
:100F800049F48D919C911197800F911FE816F906F5
:100F900009F4ACC11296E815F90561F781C0819199
:100FA0009191ADA1BEA12D913D91BEA3ADA3860FA0
:100FB000971F880F991F880F991F880F991F820FFD
:100FC000931F800F911F880F991F84559E4FDC013E
:100FD0004D925C928E169F0611F7B5E0EB16F10468
:100FE00009F05EC01092CC002CEA32E0CA014096B3
:100FF000FA0111921192AF01E817F907C9F7AC0194
:101000002817390799F70E94080260E081E00E94E2
:101010000F028BE890E00E94A30260E082E00E9451
:101020000F0285E990E00E94A30281E090E0909396
:10103000DF018093DE019093E1018093E0019093C2
:10104000E7018093E6019093E9018093E801909392
:1010500013028093120290931502809314029093CE
:10106000230280932202909325028093240290937E
:1010700043028093420290934502809344029093EE
:10108000510280935002909357028093560290939E
:101090005F0280935E02909369028093680256C15A
:1010A000F9E0AF0EB11C2A143B0409F039CF80914E
:1010B000C8009091C9002FA138A52817390751F40D
:1010C0008091C6009091C70069A57AA56817790735
:1010D00009F43CC10091CA001091CB000115110523
:1010E00009F44BC09801ADECBCEC0E94D509969573
:1010F0008795969587959C01220F331F220F331FEA
:10110000820F931F08171907C1F587E0E3EAF0E0A3
:10111000DE01519601900D928A95E1F74AE0BE01F9
:101120006F5F7F4FC8010E94510A80E290E29AA34C
:1011300089A380E290E09CA38BA3DE011196AE010F
:101140004F5D5F4F80E090E09D01F901019000202C
:10115000E9F73197E21BF30B8E179F0730F46D917F
:10116000FA016193AF010196F0CFBE016F5D7F4F31
:10117000CE0141960E94460A09C08EE0EAEAF0E0FC
:10118000DE01519601900D928A95E1F706EC10E090
:10119000F801A781B08587E0E8EBF0E001900D92BF
:1011A0008A95E1F7D80119966D917C911A974AE0DA
:1011B0008D919C910E94510A80E290E29AA389A3AA
:1011C00080E290E09CA38BA3F801A185B285AD01DC
:1011D0009E012F5D3F4F80E090E0FD0101900020D7
:1011E000E9F73197EA1BFB0B8E179F0740F4FA01D2
:1011F0006191AF01F90161939F010196EECF06EC79
:1012000010E0BE016F5D7F4FD80117968D919C91C4
:1012100018970E94460AF801A185B28586E0EFEB97
:10122000F0E001900D928A95E1F7D80112968D9128
:101230009C9113978530910564F42BE21996ED91FA
:10124000FC911A97E80FF91F2083019685309105CC
:10125000A9F706EC10E0F801618572858781908519
:101260000E94460AD80117960D911C9118970E946A
:10127000080260E081E00E940F02C8010E94A30200
:1012800060E082E00E940F02CE0141960E94A3021C
:101290005DC0760110E0F701819191917F01009787
:1012A00089F0029731F442E5602F812F0E945500AA
:1012B00005C047E4602F812F0E945500F1E2FA95A6
:1012C000F1F700001F5F183031F720E1C20ED11C8A
:1012D0000F5F0031F1F642C08091FC00882309F4D1
:1012E000F1CCE5E0F1E081E090E0E8CCD3011296AA
:1012F000ED90FC901397BFEFEB1AFB0AF301F3821A
:10130000E28215821482ADA1BEA157961C9288E09C
:10131000E4E6F0E0DE01519601900D928A95E1F746
:101320001A821982DC82CB821E821D8218861F825D
:10133000F30186859785A089B189BC018D01FE01E5
:101340007196DE011196BEA3ADA329CE0F2EFCEA45
:10135000CF2EF1E0DF2EF02D00E09BCFAA960FB646
:10136000F894DEBF0FBECDBFDF91CF911F910F91DB
:10137000FF90EF90DF90CF90BF90AF909F908F90B5
:101380007F906F905F904F903F902F9008950E94B4
:101390001C04C0E0D0E02196CE010E943904FBCFAE
:1013A00086EC90E00E94B2020895A29FB001B39F24
:1013B000C001A39F700D811D1124911DB29F700D5E
:1013C000811D1124911D0895EE0FFF1F0590F491CA
:1013D000E02D09948F929F92AF92BF92CF92DF92AD
:1013E000EF92FF92CF93DF93EC01688179818A813C
:1013F0009B81611571058105910521F464E279ED08
:101400008BE597E02DE133EF41E050E00E94860A42
:1014100049015A019B01AC01A7EAB1E40E94A50A67
:101420006B017C01ACEEB4EFA50194010E94B30AFC
:10143000DC01CB018C0D9D1DAE1DBF1DB7FF03C090
:101440000197A109B04888839983AA83BB839F77BA
:10145000DF91CF91FF90EF90DF90CF90BF90AF9052
:101460009F908F9008950E94EA09089580E690E089
:101470000E94EA090895A0E0B0E080936000909394
:101480006100A0936200B09363000895FB01DC014A
:101490000D900020E9F7119701900D920020E1F7DF
:1014A0000895BB274A3031F4992322F4BDE2909588
:1014B00081959F4F0C945D0ABB27FB015527AA27F6
:1014C000880F991FAA1FA41710F0A41B83955051D1
:1014D000B9F7A05DAA3308F0A95DA193009779F749
:1014E000B111B1931192CB010C94760ADC01FC018D
:1014F000672F71917723E1F7329704C07C916D9348
:1015000070836291AE17BF07C8F30895052E97FB4D
:101510001EF400940E949D0A57FD07D00E94B80A4D
:1015200007FC03D04EF40C949D0A509540953095DD
:1015300021953F4F4F4F5F4F08959095809570953F
:1015400061957F4F8F4F9F4F08950E94D509A59FAA
:10155000900DB49F900DA49F800D911D11240895AE
:10156000B7FF0C94A50A0E94A50A821B930B08954D
:10157000A1E21A2EAA1BBB1BFD010DC0AA1FBB1F97
:10158000EE1FFF1FA217B307E407F50720F0A21B09
:10159000B30BE40BF50B661F771F881F991F1A9476
:1015A00069F760957095809590959B01AC01BD01A0
:0815B000CF010895F894FFCF6C
:1015B8000100000000000000FFFF01004B696C6C97
:1015C800733A2030202B2B2B2B2B00456E656D6931
:1015D80065732073706F747465640047616D65206E
:1015E8004F76657200506C617920416761696E20A1
:1015F8003A2900436F6D626F3A00456E656D792038
:1016080073706F74746564004B696C6C733A002076
:061618002020202000004C
:00000001FF
