S01700004763634170706C69636174696F6E312E737265635B
S11300000C942B000C9453000C9453000C94530048
S11300100C9453000C9453000C9453000C94530010
S11300200C9453000C9453000C9453000C94530000
S11300300C9453000C9453000C9453000C945300F0
S11300400C9453000C9453000C9453000C945300E0
S11300500C945300060911241FBECFE5D8E0DEBF7F
S1130060CDBF10E0A0E6B0E0E4E2F4E102C0059008
S11300700D92A63CB107D9F722E0A6ECB0E001C08E
S11300801D92A73AB207E1F710E0CBE2D0E004C03A
S11300902197FE010E941A09CA32D107C9F70E94AA
S11300A0FD080C94100A0C9400009FE0961B423546
S11300B021F488608295807F03C0877F8295807F4A
S11300C0892B88BB0895672B09F09FC0009711F412
S11300D0D89808958130910511F4D9980895823003
S11300E0910511F4DA9808958330910511F4DB98A1
S11300F008958430910511F4DC98089585309105B4
S113010011F4DD9808958630910511F4DE98089570
S11301108730910511F4DF9808958A30910511F420
S1130120C09808958B30910511F4C19808958C30CE
S1130130910511F4C29808958D30910511F4C39876
S113014008958E30910511F4C49808958F30910567
S113015011F4C59808958031910511F4C698089555
S11301608131910511F4C79808958431910511F4F2
S1130170A89808958531910511F4A99808958631B8
S1130180910511F4AA9808958731910511F4AB985B
S113019008958831910511F4AC9808958931910539
S11301A011F4AD9808958A31910511F4AE9808952B
S11301B08B31910511F4AF9808958E31910511F4A6
S11301C0909808958F31910511F491980895803293
S11301D0910511F4929808958132910511F4939840
S11301E008958232910511F494980895833291050B
S11301F011F4959808958432910511F49698089510
S1130200859709F09FC097980895009711F4D89A9C
S113021008958130910511F4D99A08958230910599
S113022011F4DA9A08958330910511F4DB9A089554
S11302308430910511F4DC9A08958530910511F408
S1130240DD9A08958630910511F4DE9A0895873079
S1130250910511F4DF9A08958A30910511F4C09A3A
S113026008958B30910511F4C19A08958C3091054D
S113027011F4C29A08958D30910511F4C39A08952A
S11302808E30910511F4C49A08958F30910511F4BC
S1130290C59A08958031910511F4C69A0895813163
S11302A0910511F4C79A08958431910511F4A89A1F
S11302B008958531910511F4A99A0895863191051F
S11302C011F4AA9A08958731910511F4AB9A08950F
S11302D08831910511F4AC9A08958931910511F48E
S11302E0AD9A08958A31910511F4AE9A08958B312F
S11302F0910511F4AF9A08958E31910511F4909AF5
S113030008958F31910511F4919A089580329105E1
S113031011F4929A08958132910511F4939A0895F3
S11303208232910511F4949A08958332910511F45F
S1130330959A08958432910511F4969A08958597B3
S113034009F4979A0895CF93C82F80FF07C061E0FE
S113035070E082E290E00E94630006C060E070E01A
S113036082E290E00E946300C1FF07C061E070E098
S113037083E290E00E94630006C060E070E083E2E4
S113038090E00E946300C2FF07C061E070E084E275
S113039090E00E94630006C060E070E084E290E0B8
S11303A00E946300C3FF07C061E070E085E290E053
S11303B00E94630006C060E070E085E290E00E9465
S11303C06300CF910895CF93C82F60E070E08AE175
S11303D090E00E9463008C2F0E94A30161E070E012
S11303E08BE190E00E94630089EF90E00197F1F7C0
S11303F000C0000060E070E08BE190E00E946300C8
S113040089EF90E00197F1F700C00000CF910895C3
S113041080E00E94E30181E00E94E3010895CF930C
S1130420C62F813059F480E8860F82958F700E9420
S1130430E3018C2F8F700E94E3010CC0823051F4D1
S113044080EC860F82958F700E94E3018C2F8F7051
S11304500E94E301CF91089580E00E94A30187E800
S113046093E10197F1F700C0000083E00E94E301EB
S113047081EE94E00197F1F700C0000083E00E9450
S1130480E3018DEB9AE00197F1F700C0000083E0EF
S11304900E94E30182E00E94E30182E00E94E30102
S11304A088E00E94E30180E00E94E3018CE00E9466
S11304B0E30180E00E94E30186E00E94E3010895E5
S11304C0CF93C82F61E070E08AE190E00E9463005E
S11304D08C2F82958F700E94A30161E070E08BE104
S11304E090E00E94630089EF90E00197F1F700C06B
S11304F0000060E070E08BE190E00E94630089EF0F
S113050090E00197F1F700C000008C2F8F700E94DB
S1130510A30161E070E08BE190E00E94630089EF49
S113052090E00197F1F700C0000060E070E08BE11B
S113053090E00E94630089EF90E00197F1F700C01A
S11305400000CF910895CF93DF93EC018881882335
S113055031F021960E94600289918111FBCFDF91D5
S1130560CF910895EF92FF920F931F93CF93DF9350
S1130570EC0184E090E09A8789878FE090E09C8783
S11305808B8781E08D87FE013E969E01275D3F4F5C
S11305901182108213821282848339962E173F07A8
S11305A0B9F7FE01BD96CE018F519F4F1182108283
S11305B0138212821482168215823996E817F9077B
S11305C0A9F7198218821B821A8281E088877E012A
S11305D000E010E00E946C09F7018770907899237D
S11305E024F40197886F9F6F019697878687118AF5
S11305F0108A128A148B038B168A158A89E0E80EF6
S1130600F11C0C501E4F0C3D85E0180719F7DE0154
S11306109D96FE01EF51FF4F11961C921E92139668
S11306201C921E92129714961C92149716961C9262
S11306301E92159718961C921E9217971996AE172C
S1130640BF0751F79E012F513E4FCF0140961192A3
S11306501192E817F907D9F7FC0128173907A9F708
S1130660DF91CF911F910F91FF90EF900895AF927A
S1130670BF92CF92DF92EF92FF920F931F93CF938B
S1130680DF93CDB7DEB7C15ED1400FB6F894DEBFBD
S11306900FBECDBF84E090E09B878A878FE090E017
S11306A09D878C8781E08E87188A1F861A8A198A0B
S11306B08B8B198E188E1B8E1A8E8C8F1AA219A2F0
S11306C01CA21BA28DA37E018EE2E80EF11C8E01FA
S11306D00E511F4FF701118210821382128214826D
S11306E01682158239960E171F07A9F788C00E9433
S11306F06C09F50187709078992324F40197886F29
S11307009F6F019697878687118A108A128AD48AE6
S1130710C38A168A158A99E0A90EB11CECE0CE1A98
S1130720EEEFDE0AFCEDCF16F5E0DF0601F7F70188
S1130730118210821382128214821682158210860C
S11307401782F9E0EF0EF11C0E151F0581F79E01CB
S11307502E513E4FC8014096F801119211928F011B
S11307608E179F07C9F78C012817390799F781EE6F
S113077091E0FE013196A6ECB0E001900D92019754
S1130780E1F7E6ECF0E06385748581859285FB01F1
S1130790EE0FFF1FEE0FFF1FEE0FFF1FDF01A80F6D
S11307A0B91FAA0FBB1FA955BE4F43E050E04D939C
S11307B05C93DC011197AE0FBF1FAA0FBB1FA95595
S11307C0BE4F4D935C939C012F5F3F4FE20FF31F8D
S11307D0EE0FFF1FE955FE4F51834083FB01319714
S11307E0EE0FFF1FEE0FFF1FEE0FFF1FE80FF91FA5
S11307F0EE0FFF1FE955FE4F518340830CC01A8250
S113080019821C821B8281E08987CE0101965C01DA
S1130810C12CD12C6CCFCF51DE4F0FB6F894DEBF74
S11308200FBECDBFDF91CF911F910F91FF90EF903D
S1130830DF90CF90BF90AF9008950E94370388EF68
S11308408ABB8FEF87BB81BB84BB0E942C020E94B2
S1130850080260E081E00E940F028CE690E00E94B2
S1130860A30260E082E00E940F0285E790E00E940C
S1130870A30208952F923F924F925F926F927F92BC
S11308808F929F92AF92BF92CF92DF92EF92FF929C
S11308900F931F93CF93DF93CDB7DEB76C970FB64B
S11308A0F894DEBF0FBECDBF9093F0008093EF00AD
S11308B00F2EF6ECAF2EF0E0BF2EF02D75010F2EAB
S11308C0FCEDCF2EF5E0DF2EF02D772473946894A1
S11308D0882481F8912C6894662462F8512C87014D
S11308E0D70153964D915C9154974F5F5F4F9A0196
S11308F03695279536952795A1EBBBE20E940B0907
S11309000024880F991F001C880F991F001C892F31
S1130910902D8C9D90018D9D300D9C9D300D11244A
S11309204217530721F0F701548B438B25C0D7019D
S113093054961C921E92539752968C9181111CC00E
S11309400E946C0987709078992324F40197886F2A
S11309509F6F01968330910511F4862D952DF80132
S113096097878687118A108A728A880F991FFC01DB
S1130970E955FE4F91828082D80155968D919C91C4
S11309805697019656969C938E9355978C32914028
S113099008F44FC0F8018289882309F44AC0868587
S11309A09785A089B1899D0197878687AD014F5F9F
S11309B05F4F4F705078552334F441505109406FC4
S11309C05F6F4F5F5F4FF801518B408B168A158A1A
S11309D0FD01EE0FFF1FEE0FFF1FEE0FFF1F8E0F27
S11309E09F1F880F991FFC01E955FE4F1182108249
S11309F02F30310521F4D80152961C921AC0F80107
S1130A0082898823B1F00088F189E02DD8011E96EF
S1130A108D919C911F97EE0FFF1FEE0FFF1FEE0F9E
S1130A20FF1FE80FF91FEE0FFF1FE955FE4F9182DC
S1130A308082B9E0EB0EF11CE1EEEE16E0E0FE067A
S1130A4009F04DCF4091EF005091F0009A01369596
S1130A50279536952795ABE7B4E10E940B09969547
S1130A60879564E6689F9001699F300D11244217B1
S1130A70530721F481E08093D30005C08091D30013
S1130A80882309F403C189B38370813009F488C0D1
S1130A90823009F0FBC0E6ECF0E021853285C384A6
S1130AA0D484B901615071091616170614F0CB01EC
S1130AB002C081E090E0D901A81BB90BCD010F2E33
S1130AC0F6ECEF2EF0E0FF2EF02DF701B287A187B0
S1130AD0D601AA0FBB1FAA0FBB1FAA0FBB1F8D01F4
S1130AE0020F131F000F111F09551E4FF801118229
S1130AF010826A0F7B1F660F771F69557E4FFB01BB
S1130B0011821082B9016F5F7F4F6A0F7B1F660FDE
S1130B10771F69557E4FFB0111821082F6013197D0
S1130B208F01000F111F000F111F000F111F200F45
S1130B30311F220F331F29553E4FF90111821082B4
S1130B40BD01680F791F660F771F69557E4F23E03B
S1130B5030E0FB0131832083BC01615071096A0FCD
S1130B607B1F660F771F69557E4FFB0131832083FE
S1130B70BC016F5F7F4FA60FB71FAA0FBB1FA955FC
S1130B80BE4F2D933C93F801E80FF91FEE0FFF1FA2
S1130B90E955FE4F31832083D7011D961C9276C000
S1130BA0E6ECF0E0218532856385748586E090E08B
S1130BB0821B930B1816190614F481E090E0820F3F
S1130BC0931F06EC10E0F80192878187DB01AA0FDE
S1130BD0BB1FAA0FBB1FAA0FBB1FFD01E20FF31F10
S1130BE0EE0FFF1FE955FE4F11821082F901319774
S1130BF0EA0FFB1FEE0FFF1FE955FE4F1182108213
S1130C00F9013196EA0FFB1FEE0FFF1FE955FE4F66
S1130C101182108261507109660F771F660F771F6A
S1130C20660F771FFB01E20FF31FEE0FFF1FE9555D
S1130C30FE4F11821082FD01E80FF91FEE0FFF1F16
S1130C40E955FE4F23E030E031832083FC013197E6
S1130C50EA0FFB1FEE0FFF1FE955FE4F3183208380
S1130C60FC013196EA0FFB1FEE0FFF1FE955FE4F03
S1130C7031832083FB01E80FF91FEE0FFF1FE955B5
S1130C80FE4F31832083D8011D961C929A01329520
S1130C9022952F7023273F702327AEE3BAE00E94EA
S1130CA00B0920E931E0FC01E29FC001E39F900DB4
S1130CB0F29F900D11244817590721F481E0809385
S1130CC0CE0005C08091CE00882309F44BC089B3BF
S1130CD0CA9960C247C0208121113EC002C080E091
S1130CE090E0FC01EE0FFF1FEE0FFF1FEE0FFF1F42
S1130CF08E0F9F1F9C012D503F4FA6ECB0E0FC01CE
S1130D00EA53FF4F15AA14AA13AA12AA81E081ABD1
S1130D101B96ED91FC911C97AF0142505109199615
S1130D208D919C911A97F901918380835383428317
S1130D30FA01EE0FFF1FEE0FFF1FEE0FFF1FE80F6C
S1130D40F91FEE0FFF1FE955FE4F83E090E09183FA
S1130D50808318961C9206C00196399684319105B9
S1130D6009F0B9CF0F2EF3EF8F2EF0E09F2EF02D68
S1130D7007EA11E0F4010F2EF3E0CF2ED12CF02D71
S1130D800F2EFFE0EF2EF02DF12C9F01858196812F
S1130D900196968385838639910508F457C040806F
S1130DA0518062807380A30141505109C0F4448191
S1130DB0442381F0A301440F551F440F551F440FD2
S1130DC0551F440D551D440F551F49555E4FDA01FB
S1130DD01D921C92D90114961C924E2D5F2DD9019F
S1130DE011965C924E9213965C934E9312971696BC
S1130DF01C921E92159714964C91442339F1A30129
S1130E00440F551F440F551F440F551FC201840F33
S1130E10951F880F991FDC01A955BE4F1D921C9286
S1130E20D90112964D915C9113978D919C91DA01A1
S1130E30AA0FBB1FAA0FBB1FAA0FBB1FA80FB91F66
S1130E40AA0FBB1FA955BE4FCD92DC923996E0176D
S1130E50F10709F09ACFE6ECF0E0408151815A8F16
S1130E60498F228033809F01AF01F4013C8F2B8F87
S1130E70D90152968C918823D9F164816623C1F1FA
S1130E80C080D180E280F380AB8DBC8D1E964D90E6
S1130E905D906D907C905197C414D50449F5E61487
S1130EA0F70431F5DA016D917C9111976F5F7F4FF3
S1130EB06D937C93AB8DBC8D1E96CD90DD90ED90A3
S1130EC0FC905197B701660F771F660F771F660F67
S1130ED0771FC60ED71EB601660F771F69557E4F62
S1130EE0DB011D921C921482AB8DBC8D52961C9218
S1130EF03996E017F10709F0BBCF275F3F4FB0E009
S1130F00213E3B0709F0B1CF44244A94542C0F2EC0
S1130F10F6EC6F2EF0E07F2EF02D4E01E9E18E0EFF
S1130F20911C6501D50152968C918823B9F188E012
S1130F30E4E6F0E0DE01519601900D928A95E1F726
S1130F401A8219825C824B821E821D8218861F823D
S1130F50F30181859285A385B485AC01BD01F501BA
S1130F6086859785A089B1899C017D01FE017196D2
S1130F70DE01119681919191840F951F8217930739
S1130F8049F48D919C911197860F971FE816F906E5
S1130F9009F40AC11296E815F90561F7F9E0AF0EF4
S1130FA0B11C21EEA21620E0B20609F0BACF80915E
S1130FB0C8009091C9002816390651F42091C60042
S1130FC03091C700498D5A8D4217530709F4F9C06F
S1130FD08530910550F48EE0E1E8F0E0DE011196F1
S1130FE001900D928A95E1F722C08A30910550F460
S1130FF08DE0EFE8F0E0DE01119601900D928A9504
S1131000E1F715C00F9750F483E1ECE9F0E0DE015D
S1131010119601900D928A95E1F709C089E0EFEAF3
S1131020F0E0DE01119601900D928A95E1F70F2E02
S1131030F6ECEF2EF0E0FF2EF02DF701A481B58140
S113104087E0E8EBF0E001900D928A95E1F7D70193
S113105016966D917C9117974AE08D919C910E9410
S1131060870980E290E29A8B898B80E290E09C8BE6
S11310708B8BF701A681B781AD019E012F5E3F4F97
S113108080E090E0FD0101900020E9F73197EA1B30
S1131090FB0B8E179F0740F4FA016191AF01F90130
S11310A061939F010196EECF0F2EF6ECEF2EF0E048
S11310B0FF2EF02DBE016F5E7F4FD70114968D91E8
S11310C09C9115970E947C09F701A681B78186E05F
S11310D0EFEBF0E001900D928A95E1F7D7011296BB
S11310E08D919C9113978530910564F42BE21696AB
S11310F0ED91FC911797E80FF91F20830196853035
S11311009105A9F70F2EF6ECEF2EF0E0FF2EF02D4F
S1131110F70166817781848195810E947C09D701DA
S11311201496ED90FC9015970E94080260E081E00F
S11311300E940F02C7010E94A30260E082E00E94A5
S11311400F02CE0101960E94A3023BC0650110E08C
S1131150F601819191916F01009789F0029731F422
S113116042E56E2D812F0E94550005C047E46E2D87
S1131170812F0E945500F1E2FA95F1F700001F5FFC
S1131180183031F720E1A20EB11CE39440E1E412DF
S1131190DDCF1AC08091F700882309F4A0CDE0E0E8
S11311A0F1E081E090E097CDD30112968D919C916E
S11311B01397019613969C938E931297F601128AB5
S11311C0EDCEE12C5801C2CF6C960FB6F894DEBF79
S11311D00FBECDBFDF91CF911F910F91FF90EF9084
S11311E0DF90CF90BF90AF909F908F907F906F9043
S11311F05F904F903F902F9008950E941D04C0E08F
S1131200D0E02196CE010E943A04FBCF86EC90E018
S11312100E94B2020895A29FB001B39FC001A39F90
S1131220700D811D1124911DB29F700D811D11241B
S1131230911D0895EE0FFF1F0590F491E02D099480
S11312408F929F92AF92BF92CF92DF92EF92FF92D2
S1131250CF93DF93EC01688179818A819B81611549
S113126071058105910521F464E279ED8BE597E040
S11312702DE133EF41E050E00E94BC0949015A01DD
S11312809B01AC01A7EAB1E40E94DB096B017C017C
S1131290ACEEB4EFA50194010E94E909DC01CB0195
S11312A08C0D9D1DAE1DBF1DB7FF03C00197A10985
S11312B0B04888839983AA83BB839F77DF91CF91BA
S11312C0FF90EF90DF90CF90BF90AF909F908F9062
S11312D008950E942009089580E690E00E94200964
S11312E00895A0E0B0E08093600090936100A09323
S11312F06200B09363000895FB01DC010D900020AF
S1131300E9F7119701900D920020E1F70895BB27AA
S11313104A3031F4992322F4BDE2909581959F4F90
S11313200C949309BB27FB015527AA27880F991F03
S1131330AA1FA41710F0A41B83955051B9F7A05D00
S1131340AA3308F0A95DA193009779F7B111B1937D
S11313501192CB010C94AC09DC01FC01672F719153
S11313607723E1F7329704C07C916D937083629187
S1131370AE17BF07C8F30895052E97FB1EF400941B
S11313800E94D30957FD07D00E94EE0907FC03D041
S11313904EF40C94D30950954095309521953F4FC8
S11313A04F4F5F4F089590958095709561957F4F4D
S11313B08F4F9F4F08950E940B09A59F900DB49FD6
S11313C0900DA49F800D911D11240895B7FF0C94D6
S11313D0DB090E94DB09821B930B0895A1E21A2EFC
S11313E0AA1BBB1BFD010DC0AA1FBB1FEE1FFF1FC5
S11313F0A217B307E407F50720F0A21BB30BE40B15
S1131400F50B661F771F881F991F1A9469F760955B
S11314107095809590959B01AC01BD01CF01089515
S1071420F894FFCF6A
S11314240100000000000000FFFF010053636F721D
S1131434653A2030004865616C74682046756C6CAC
S1131444004772656174206865616C7468210047A3
S11314546F6F64206865616C7468210043726974F9
S11314646963616C206865616C7468203A2800447F
S1131474656164203A2728004B696C6C733A002038
S1091484202020200000DE
S9030000FC
