:100000000C942B000C9453000C9453000C9453004C
:100010000C9453000C9453000C9453000C94530014
:100020000C9453000C9453000C9453000C94530004
:100030000C9453000C9453000C9453000C945300F4
:100040000C9453000C9453000C9453000C945300E4
:100050000C945300BE0811241FBECFE5D8E0DEBFCC
:10006000CDBF10E0A0E6B0E0E6EDF5E102C00590FE
:100070000D92AE3BB107D9F722E0AEEBB0E001C084
:100080001D92A23AB207E1F710E0CBE2D0E004C043
:100090002197FE010E94D208CA32D107C9F70E94F7
:1000A000B5080C94E90A0C9400006295607F21E089
:1000B00030E002C0220F331F8A95E2F7209528BB5B
:1000C0006BBB0895672B09F09FC0009711F4D89877
:1000D00008958130910511F4D998089582309105E1
:1000E00011F4DA9808958330910511F4DB9808959E
:1000F0008430910511F4DC9808958530910511F450
:10010000DD9808958630910511F4DE9808958730C2
:10011000910511F4DF9808958A30910511F4C09883
:1001200008958B30910511F4C19808958C30910594
:1001300011F4C29808958D30910511F4C398089573
:100140008E30910511F4C49808958F30910511F403
:10015000C59808958031910511F4C69808958131AC
:10016000910511F4C79808958431910511F4A89868
:1001700008958531910511F4A99808958631910566
:1001800011F4AA9808958731910511F4AB98089558
:100190008831910511F4AC9808958931910511F4D5
:1001A000AD9808958A31910511F4AE9808958B3178
:1001B000910511F4AF9808958E31910511F490983E
:1001C00008958F31910511F4919808958032910529
:1001D00011F4929808958132910511F4939808953D
:1001E0008232910511F4949808958332910511F4A7
:1001F000959808958432910511F4969808958597FD
:1002000009F09FC097980895009711F4D89A08951F
:100210008130910511F4D99A08958230910511F435
:10022000DA9A08958330910511F4DB9A08958430A9
:10023000910511F4DC9A08958530910511F4DD9A49
:1002400008958630910511F4DE9A0895873091055E
:1002500011F4DF9A08958A30910511F4C09A089537
:100260008B30910511F4C19A08958C30910511F4E9
:10027000C29A08958D30910511F4C39A08958E3075
:10028000910511F4C49A08958F30910511F4C59A1F
:1002900008958031910511F4C69A08958131910530
:1002A00011F4C79A08958431910511F4A89A08951C
:1002B0008531910511F4A99A08958631910511F4BB
:1002C000AA9A08958731910511F4AB9A089588315F
:1002D000910511F4AC9A08958931910511F4AD9A04
:1002E00008958A31910511F4AE9A08958B319105E4
:1002F00011F4AF9A08958E31910511F4909A0895F2
:100300008F31910511F4919A08958032910511F47D
:10031000929A08958132910511F4939A0895823248
:10032000910511F4949A08958332910511F4959AE8
:1003300008958432910511F4969A0895859709F4E9
:10034000979A0895CF93C82F80FF07C061E070E0AF
:1003500082E290E00E94620006C060E070E082E20B
:1003600090E00E946200C1FF07C061E070E083E29C
:1003700090E00E94620006C060E070E083E290E0DE
:100380000E946200C2FF07C061E070E084E290E07A
:100390000E94620006C060E070E084E290E00E948B
:1003A0006200C3FF07C061E070E085E290E00E9458
:1003B000620006C060E070E085E290E00E946200AA
:1003C000CF910895CF93C82F60E070E08AE190E06C
:1003D0000E9462008C2F0E94A20161E070E08BE11C
:1003E00090E00E94620089EF90E00197F1F700C071
:1003F000000060E070E08BE190E00E94620089EF15
:1004000090E00197F1F700C00000CF91089580E0DF
:100410000E94E20181E00E94E2010895CF93C62F7D
:10042000813059F480E8860F82958F700E94E20136
:100430008C2F8F700E94E2010CC0823051F480EC4E
:10044000860F82958F700E94E2018C2F8F700E9420
:10045000E201CF91089580E00E94A20187E893E134
:100460000197F1F700C0000083E00E94E20181EEF5
:1004700094E00197F1F700C0000083E00E94E201E0
:100480008DEB9AE00197F1F700C0000083E00E9435
:10049000E20182E00E94E20182E00E94E20188E043
:1004A0000E94E20180E00E94E2018CE00E94E201F1
:1004B00080E00E94E20186E00E94E2010895CF936D
:1004C000C82F61E070E08AE190E00E9462008C2F0A
:1004D00082958F700E94A20161E070E08BE190E054
:1004E0000E94620089EF90E00197F1F700C00000E0
:1004F00060E070E08BE190E00E94620089EF90E0A4
:100500000197F1F700C000008C2F8F700E94A201AC
:1005100061E070E08BE190E00E94620089EF90E082
:100520000197F1F700C0000060E070E08BE190E01F
:100530000E94620089EF90E00197F1F700C000008F
:10054000CF910895CF93DF93EC018881882331F018
:1005500021960E945F0289918111FBCFDF91CF919B
:100560000895EF92FF920F931F93CF93DF93EC01C7
:1005700084E090E0998788878FE090E09B878A8766
:1005800081E08C87FE013D969E01285D3F4F1182E0
:10059000108213821282848339962E173F07B9F78F
:1005A000FE01BC96CE0180529F4F118210821382B1
:1005B00012821482168215823996E817F907A9F774
:1005C000198218821B821A8284E090E00E94D80867
:1005D0009D838C8384E090E00E94D8089F838E8363
:1005E0007E0100E010E00E94450AF70187709078D4
:1005F000992324F40197886F9F6F019696878587CA
:10060000108A1786118A138B028B158A148A89E047
:10061000E80EF11C0C501E4F0C3D85E0180719F731
:10062000DE019C96FE01E052FF4F11961C921E9235
:1006300013961C921E92129714961C92149716965B
:100640001C921E92159718961C921E921797199637
:10065000AE17BF0751F79E0120523E4FCF01409683
:1006600011921192E817F907D9F7FC0128173907F9
:10067000A9F7DF91CF911F910F91FF90EF9008950F
:10068000AF92BF92CF92DF92EF92FF920F931F93A0
:10069000CF93DF93CDB7DEB7C05ED1400FB6F894ED
:1006A000DEBF0FBECDBF84E090E09A8789878FE0E0
:1006B00090E09C878B8781E08D871F861E86198A34
:1006C000188A8A8B188E1F8A1A8E198E8B8F19A200
:1006D00018A21BA21AA28CA37E018DE2E80EF11CC7
:1006E0008E010F511F4FF701118210821382128267
:1006F00014821682158239960E171F07A9F781C03A
:100700000E94450AF50187709078992324F4019797
:10071000886F9F6F019696878587108A1786118A42
:10072000D38AC28A158A148A99E0A90EB11CECE01A
:10073000CE1AEEEFDE0AFCEDCF16F5E0DF0601F78C
:10074000F70111821082138212821482168215829E
:1007500010861782F9E0EF0EF11C0E151F0581F7C8
:100760009E012F513E4FC8014096F80111921192FF
:100770008F018E179F07C9F78C018217930799F78E
:1007800080EE91E0FE013196AEEBB0E001900D926B
:100790000197E1F7EEEBF0E0428553852085318546
:1007A000CA01880F991F880F991F880F991F820F00
:1007B000931FFC01EE0FFF1FE256FE4F63E070E057
:1007C00071836083FC01EE0FFF1FE456FE4F7183BF
:1007D0006083880F991FFC01E056FE4F7183608390
:1007E000FA013197EE0FFF1FEE0FFF1FEE0FFF1FF5
:1007F000E20FF31FEE0FFF1FE256FE4F718360837F
:1008000016C01A8219821C821B8284E090E00E942A
:10081000D8089E838D8384E090E00E94D808988752
:100820008F83CE0101965C01C12CD12C69CFC052BF
:10083000DE4F0FB6F894DEBF0FBECDBFDF91CF9174
:100840001F910F91FF90EF90DF90CF90BF90AF90EE
:1008500008950E9440038CEF8ABB8FEF87BB81BB5A
:1008600084BB0E942B020E94070260E081E00E948C
:100870000E0282E790E00E94A20260E082E00E9405
:100880000E028BE790E00E94A20208952F923F9201
:100890004F925F926F927F928F929F92AF92BF9290
:1008A000CF92DF92EF92FF920F931F93CF93DF933C
:1008B000CDB7DEB76C970FB6F894DEBF0FBECDBFD5
:1008C0009093E7008093E6000F2EFEEBAF2EF0E052
:1008D000BF2EF02D75010F2EF8EBCF2EFBE0DF2E93
:1008E000F02D552453946894882481F8912C870125
:1008F000D70152964D915C9153974F5F5F4F9A018C
:10090000369527953695279536952795A9EDB5E126
:100910000E94C30896958795929582958F70892736
:100920009F7089278C9D90018D9D300D9C9D300D71
:1009300011244217530721F0F701538B428B20C03B
:10094000D70153961C921E92529751968C91811109
:1009500017C00E94450A87709078992324F4019764
:10096000886F9F6F0196F80196878587108A178692
:10097000518A880F991FFC01E256FE4F91828082B6
:10098000D80154968D919C915597019655969C93BC
:100990008E9354978039914008F44FC0F8018189B3
:1009A000882309F44AC085859685A785B0899D016D
:1009B00096878587AD014F5F5F4F4F705078552305
:1009C00034F441505109406F5F6F4F5F5F4FF80142
:1009D000508B4787158A148AFD01EE0FFF1FEE0F1B
:1009E000FF1FEE0FFF1F8E0F9F1F880F991FFC0127
:1009F000E256FE4F118210822F30310521F4D801CA
:100A000051961C921AC0F80181898823B1F007849D
:100A1000F089E02DD8011D968D919C911E97EE0FC7
:100A2000FF1FEE0FFF1FEE0FFF1FE80FF91FEE0F66
:100A3000FF1FE256FE4F91828082B9E0EB0EF11C5F
:100A4000E9EDEE16E0E0FE0609F051CF4091E60038
:100A50005091E7009A013695279536952795ABE397
:100A6000BDE60E94C30896958795929582958F70F2
:100A700089279F7089276CE271E0869F9001879F8C
:100A8000300D969F300D11244217530721F481E059
:100A90008093CA0005C08091CA00882309F41DC351
:100AA00089B38370813009F477C008F416C38230AB
:100AB00009F0E6C0EEEBF0E0208531858284938476
:100AC000F90131971E161F0614F0CF0102C081E014
:100AD00090E0B901681B790B0F2EFEEBCF2EF0E0F2
:100AE000DF2EF02DD60119967C936E931897C401D2
:100AF000880F991F880F991F880F991F8C01020F6B
:100B0000131F7801EE0CFF1CD701A256BE4F1D9299
:100B10001C92E80FF91FEE0FFF1FE256FE4F1182E5
:100B20001082F701E056FE4F11821082D401119716
:100B3000AA0FBB1FAA0FBB1FAA0FBB1FFD01E20F0D
:100B4000F31FEE0FFF1FE256FE4F11821082860F39
:100B5000971FFC01EE0FFF1FE256FE4F23E030E02F
:100B600031832083FC01EE0FFF1FE456FE4F3183DB
:100B70002083880F991FFC01E056FE4F31832083AC
:100B8000FD01E60FF71FEE0FFF1FE256FE4F318308
:100B90002083F6011486A1C2EEEBF0E0608571853A
:100BA000C284D38486E090E0861B970B1816190642
:100BB00014F481E090E0860F971F0F2EFEEBEF2ECE
:100BC000F0E0FF2EF02DD70119969C938E93189785
:100BD0009601220F331F220F331F220F331FD9011B
:100BE000A60FB71F8D01000F111F02561E4FF801EF
:100BF000118210828D01000F111F04561E4FF80143
:100C000011821082AA0FBB1FA056BE4F1D921C92CC
:100C1000F6013197DF01AA0FBB1FAA0FBB1FAA0F56
:100C2000BB1FFD01E60FF71FEE0FFF1FE256FE4F41
:100C300011821082280F391FF901EE0FFF1FE256B3
:100C4000FE4F63E070E071836083F901EE0FFF1FD8
:100C5000E456FE4F71836083220F331FF901E05683
:100C6000FE4F71836083FD01E80FF91FEE0FFF1F38
:100C7000E256FE4F71836083D7011C961C922DC2F1
:100C80009A01369527953695279536952795A5ECA3
:100C9000B0E20E94C308929582958F7089279F7059
:100CA000892768EE73E0869F9001879F300D969F9D
:100CB000300D11244217530709F04BC08091EE000C
:100CC000882341F0E7EFF0E081E090E020812111FE
:100CD0003AC002C080E090E0FC01EE0FFF1FEE0F73
:100CE000FF1FEE0FFF1F8E0F9F1FDC01A651BF4F8E
:100CF0004EEB50E0FC01E254FF4F14AA13AA12AAD3
:100D000011AA81E080ABFA01228533852250310996
:100D10008085918511969C938E9313963C932E9388
:100D20001297F901EE0FFF1FEE0FFF1FEE0FFF1FCF
:100D3000E80FF91FEE0FFF1FE256FE4F83E090E031
:100D40009183808306C0019639968431910509F01C
:100D5000BDCF0F2EFAEE8F2EF0E09F2EF02D0EE974
:100D600011E0F4010F2EF3E0CF2ED12CF02D0F2E39
:100D7000FFE0EF2EF02DF12C9F01858196810196E9
:100D8000968385838639910508F457C04080518049
:100D900062807380A30141505109C0F4448144230F
:100DA00081F0A301440F551F440F551F440F551FD9
:100DB000440D551D440F551F42565E4FDA011D92DA
:100DC0001C92D90114961C924E2D5F2DD9011196BB
:100DD0005C924E9213965C934E93129716961C92C9
:100DE0001E92159714964C91442339F1A301440F98
:100DF000551F440F551F440F551FC201840F951FE7
:100E0000880F991FDC01A256BE4F1D921C92D9017A
:100E100012964D915C9113978D919C91DA01AA0FD6
:100E2000BB1FAA0FBB1FAA0FBB1FA80FB91FAA0F7A
:100E3000BB1FA256BE4FCD92DC923996E017F10748
:100E400009F09ACFEEEBF0E0208131813C8F2B8FBF
:100E5000428153815A8F498F9F01AF01F4011901DB
:100E6000D90151968C918823B9F184818823A1F10D
:100E7000C080D180E280F380D1011D964D905D90BD
:100E80006D907C905097C414D50431F5E614F704A6
:100E900019F5DA018D919C91119701968D939C9390
:100EA000D1011D96CD90DD90ED90FC905097C7013B
:100EB000880F991F880F991F880F991FC80ED91E78
:100EC000C601880F991F82569E4FDC011D921C920D
:100ED0001482D10151961C923996E017F10709F05E
:100EE000BFCF275F3F4FB0E0293D3B0709F0B6CFAA
:100EF00022242A94322C0F2EFEEB4F2EF0E05F2E90
:100F0000F02D4E01E9E18E0E911C6501D50151963F
:100F10008C918823B9F188E0EAE6F0E0DE01519691
:100F200001900D928A95E1F71A8219823C822B82F8
:100F30001E821D8218861F82F20180859185A285FE
:100F4000B385AC01BD01F50185859685A785B0897E
:100F50009C017D01FE017196DE01119681919191B6
:100F6000840F951F8217930749F48D919C911197D7
:100F7000860F971F8E159F0509F4CEC01296E815AF
:100F8000F90561F7F9E0AF0EB11C29EDA21620E0DA
:100F9000B20609F0BACF8091C0009091C100498D8E
:100FA0005A8D4817590751F42091BE003091BF0067
:100FB0004B8D5C8D4217530709F4BBC085309105FA
:100FC00050F48EE0E7E8F0E0DE01119601900D921A
:100FD0008A95E1F722C08A30910550F48DE0E5E969
:100FE000F0E0DE01119601900D928A95E1F715C0AF
:100FF0000F9750F483E1E2EAF0E0DE0111960190F0
:101000000D928A95E1F709C089E0E5EBF0E0DE0199
:10101000119601900D928A95E1F70F2EFEEBEF2EBF
:10102000F0E0FF2EF02DD70114966D917C9115976D
:101030004AE08D919C910E94600AF7016681778158
:101040004AE0828193810E94600AD7011496ED9153
:10105000FC91159701900020E9F731978CE290E21E
:1010600091838083128216966D917C9117971496C6
:101070008D919C9115970E94550AF701E480F580A7
:101080000E94070260E081E00E940E02C7010E94F8
:10109000A20260E082E00E940E02CE0101960E9450
:1010A000A20247C0650110E0D6018D919D916D01AE
:1010B000892B41F06E2D812F0E945500B1E2BA9527
:1010C000F1F700001F5F183079F7E0E1AE0EB11CB8
:1010D000E394F0E1EF12E6CF2FC09A013695279501
:1010E0003695279536952795A5ECB0E20E94C30862
:1010F000929582958F7089279F70892768EE73E09B
:10110000869F9001879F300D969F300D11244217C6
:10111000530709F4D3CD1DCED20112968D919C9127
:101120001397019613969C938E931297F601118A4A
:1011300029CFE12C5801B6CF6C960FB6F894DEBFDC
:101140000FBECDBFDF91CF911F910F91FF90EF9018
:10115000DF90CF90BF90AF909F908F907F906F90D7
:101160005F904F903F902F9008950E942904C0E017
:10117000D0E02196CE010E944604FBCF8EEB90E09A
:101180000E94B1020895A29FB001B39FC001A39F26
:10119000700D811D1124911DB29F700D811D1124B0
:1011A000911D0895EE0FFF1F0590F491E02D099415
:1011B0000F931F93CF93DF938230910510F482E059
:1011C00090E0E091A002F091A10220E030E0A0E0E8
:1011D000B0E0309719F140815181028113814817A5
:1011E0005907C8F08417950769F4109731F01296E3
:1011F0000C93129713961C9327C00093A002109390
:10120000A10222C02115310519F04217530718F425
:101210009A01BD01EF01DF01F801DBCF2115310596
:10122000F9F0281B390B2430310580F48A819B8129
:101230006115710521F0FB019383828304C09093B3
:10124000A1028093A002FE01329644C0FE01E20F8B
:10125000F31F8193919322503109398328833AC037
:1012600020919E0230919F02232B41F42091620035
:101270003091630030939F0220939E022091600082
:10128000309161002115310541F42DB73EB74091F1
:10129000640050916500241B350BE0919E02F09193
:1012A0009F02E217F307A0F42E1B3F0B2817390704
:1012B00078F0AC014E5F5F4F2417350748F04E0FB2
:1012C0005F1F50939F0240939E028193919302C0AF
:1012D000E0E0F0E0CF01DF91CF911F910F910895F1
:1012E000CF93DF93009709F481C0FC0132971382FA
:1012F0001282A091A002B091A102109781F42081E6
:101300003181820F931F20919E0230919F022817F6
:10131000390751F5F0939F02E0939E0267C0ED01FB
:1013200020E030E0CE17DF0740F44A815B819E0168
:1013300041155105F1F0EA01F5CFD383C283408115
:101340005181840F951FC817D90759F48881998155
:10135000840F951F0296918380838A819B8193835A
:1013600082832115310529F4F093A102E093A002B4
:101370003DC0E901FB83EA8349915991C40FD51F10
:10138000EC17FD0761F480819181840F951F02960F
:10139000E90199838883828193819B838A83E0E03A
:1013A000F0E012968D919C911397009719F0FD0132
:1013B000DC01F7CF8D919C9111979D012E5F3F4FDE
:1013C000820F931F20919E0230919F0228173907A8
:1013D00069F4309729F41092A1021092A00202C081
:1013E00013821282B0939F02A0939E02DF91CF914D
:1013F00008958F929F92AF92BF92CF92DF92EF9219
:10140000FF92CF93DF93EC01688179818A819B8180
:10141000611571058105910521F464E279ED8BE593
:1014200097E02DE133EF41E050E00E94950A490139
:101430005A019B01AC01A7EAB1E40E94B40A6B0116
:101440007C01ACEEB4EFA50194010E94C20ADC015C
:10145000CB018C0D9D1DAE1DBF1DB7FF03C00197B5
:10146000A109B04888839983AA83BB839F77DF91C2
:10147000CF91FF90EF90DF90CF90BF90AF909F9073
:101480008F9008950E94F909089586E690E00E94E1
:10149000F9090895A0E0B0E080936600909367009A
:1014A000A0936800B09369000895FB01DC010D90E2
:1014B0000020E9F7119701900D920020E1F70895BF
:1014C000BB274A3031F4992322F4BDE290958195EF
:1014D0009F4F0C946C0ABB27FB015527AA27880F46
:1014E000991FAA1FA41710F0A41B83955051B9F798
:1014F000A05DAA3308F0A95DA193009779F7B11117
:10150000B1931192CB010C94850ADC01FC01672F89
:1015100071917723E1F7329704C07C916D937083CA
:101520006291AE17BF07C8F30895052E97FB1EF40E
:1015300000940E94AC0A57FD07D00E94C70A07FC1E
:1015400003D04EF40C94AC0A5095409530952195FB
:101550003F4F4F4F5F4F08959095809570956195DF
:101560007F4F8F4F9F4F08950E94C308A59F900DF6
:10157000B49F900DA49F800D911D11240895B7FF75
:101580000C94B40A0E94B40A821B930B0895A1E242
:101590001A2EAA1BBB1BFD010DC0AA1FBB1FEE1FED
:1015A000FF1FA217B307E407F50720F0A21BB30B38
:1015B000E40BF50B661F771F881F991F1A9469F7B4
:1015C00060957095809590959B01AC01BD01CF0110
:0615D0000895F894FFCF1E
:1015D6000000A20220000100000000000000FFFF42
:1015E600010053636F72653A2030004865616C7480
:1015F600682046756C6C0047726561742068656189
:101606006C74682100476F6F64206865616C74684C
:101616002100437269746963616C206865616C744A
:0E16260068203A280044656164203A272800B5
:00000001FF
