S01700004763634170706C69636174696F6E312E737265635B
S11300000C942B000C9453000C9453000C94530048
S11300100C9453000C9453000C9453000C94530010
S11300200C9453000C9453000C9453000C94530000
S11300300C9453000C9453000C9453000C945300F0
S11300400C9453000C9453000C9453000C945300E0
S11300500C945300CE0811241FBECFE5D8E0DEBFB8
S1130060CDBF10E0A0E6B0E0E6EFF5E102C00590F8
S11300700D92AE3BB107D9F722E0AEEBB0E001C080
S11300801D92A33AB207E1F710E0CBE2D0E004C03E
S11300902197FE010E94E208CA32D107C9F70E94E3
S11300A0C5080C94F90A0C9400006295607F21E065
S11300B030E002C0220F331F8A95E2F7209528BB57
S11300C06BBB0895672B09F09FC0009711F4D89873
S11300D008958130910511F4D998089582309105DD
S11300E011F4DA9808958330910511F4DB9808959A
S11300F08430910511F4DC9808958530910511F44C
S1130100DD9808958630910511F4DE9808958730BE
S1130110910511F4DF9808958A30910511F4C0987F
S113012008958B30910511F4C19808958C30910590
S113013011F4C29808958D30910511F4C39808956F
S11301408E30910511F4C49808958F30910511F4FF
S1130150C59808958031910511F4C69808958131A8
S1130160910511F4C79808958431910511F4A89864
S113017008958531910511F4A99808958631910562
S113018011F4AA9808958731910511F4AB98089554
S11301908831910511F4AC9808958931910511F4D1
S11301A0AD9808958A31910511F4AE9808958B3174
S11301B0910511F4AF9808958E31910511F490983A
S11301C008958F31910511F4919808958032910525
S11301D011F4929808958132910511F49398089539
S11301E08232910511F4949808958332910511F4A3
S11301F0959808958432910511F4969808958597F9
S113020009F09FC097980895009711F4D89A08951B
S11302108130910511F4D99A08958230910511F431
S1130220DA9A08958330910511F4DB9A08958430A5
S1130230910511F4DC9A08958530910511F4DD9A45
S113024008958630910511F4DE9A0895873091055A
S113025011F4DF9A08958A30910511F4C09A089533
S11302608B30910511F4C19A08958C30910511F4E5
S1130270C29A08958D30910511F4C39A08958E3071
S1130280910511F4C49A08958F30910511F4C59A1B
S113029008958031910511F4C69A0895813191052C
S11302A011F4C79A08958431910511F4A89A089518
S11302B08531910511F4A99A08958631910511F4B7
S11302C0AA9A08958731910511F4AB9A089588315B
S11302D0910511F4AC9A08958931910511F4AD9A00
S11302E008958A31910511F4AE9A08958B319105E0
S11302F011F4AF9A08958E31910511F4909A0895EE
S11303008F31910511F4919A08958032910511F479
S1130310929A08958132910511F4939A0895823244
S1130320910511F4949A08958332910511F4959AE4
S113033008958432910511F4969A0895859709F4E5
S1130340979A0895CF93C82F80FF07C061E070E0AB
S113035082E290E00E94620006C060E070E082E207
S113036090E00E946200C1FF07C061E070E083E298
S113037090E00E94620006C060E070E083E290E0DA
S11303800E946200C2FF07C061E070E084E290E076
S11303900E94620006C060E070E084E290E00E9487
S11303A06200C3FF07C061E070E085E290E00E9454
S11303B0620006C060E070E085E290E00E946200A6
S11303C0CF910895CF93C82F60E070E08AE190E068
S11303D00E9462008C2F0E94A20161E070E08BE118
S11303E090E00E94620089EF90E00197F1F700C06D
S11303F0000060E070E08BE190E00E94620089EF11
S113040090E00197F1F700C00000CF91089580E0DB
S11304100E94E20181E00E94E2010895CF93C62F79
S1130420813059F480E8860F82958F700E94E20132
S11304308C2F8F700E94E2010CC0823051F480EC4A
S1130440860F82958F700E94E2018C2F8F700E941C
S1130450E201CF91089580E00E94A20187E893E130
S11304600197F1F700C0000083E00E94E20181EEF1
S113047094E00197F1F700C0000083E00E94E201DC
S11304808DEB9AE00197F1F700C0000083E00E9431
S1130490E20182E00E94E20182E00E94E20188E03F
S11304A00E94E20180E00E94E2018CE00E94E201ED
S11304B080E00E94E20186E00E94E2010895CF9369
S11304C0C82F61E070E08AE190E00E9462008C2F06
S11304D082958F700E94A20161E070E08BE190E050
S11304E00E94620089EF90E00197F1F700C00000DC
S11304F060E070E08BE190E00E94620089EF90E0A0
S11305000197F1F700C000008C2F8F700E94A201A8
S113051061E070E08BE190E00E94620089EF90E07E
S11305200197F1F700C0000060E070E08BE190E01B
S11305300E94620089EF90E00197F1F700C000008B
S1130540CF910895CF93DF93EC018881882331F014
S113055021960E945F0289918111FBCFDF91CF9197
S11305600895EF92FF920F931F93CF93DF93EC01C3
S113057081E0888724E030E03A8729872FE030E063
S11305803C872B878D87FE013E969E01275D3F4F5A
S11305901182108213821282848339962E173F07A8
S11305A0B9F7FE01BD96CE018F519F4F1182108283
S11305B0138212821482168215823996E817F9077B
S11305C0A9F7198218821B821A8284E090E00E94A3
S11305D0E8089D838C8384E090E00E94E8089F8370
S11305E08E837E0100E010E00E94550AF7018770B7
S11305F09078992324F40197886F9F6F01969787C9
S11306008687118A108A128A148B038B168A158A9C
S113061089E0E80EF11C0C501E4F0C3D85E01807D4
S113062019F7DE019D96FE01EF51FF4F11961C92C2
S11306301E9213961C921E92129714961C92149753
S113064016961C921E92159718961C921E92179736
S11306501996AE17BF0751F79E012F513E4FCF0198
S1130660409611921192E817F907D9F7FC0128175F
S11306703907A9F7DF91CF911F910F91FF90EF9068
S11306800895AF92BF92CF92DF92EF92FF920F93B1
S11306901F93CF93DF93CDB7DEB7C15ED1400FB6C2
S11306A0F894DEBF0FBECDBF81E0898724E030E03F
S11306B03B872A872FE030E03D872C878E87188A76
S11306C01F861A8A198A8B8B198E188E1B8E1A8E86
S11306D08C8F1AA219A21CA21BA28DA37E018EE2EA
S11306E0E80EF11C8E010E511F4FF701118210828A
S11306F01382128214821682158239960E171F07EE
S1130700A9F788C00E94550AF5018770907899234B
S113071024F40197886F9F6F019697878687118AC3
S1130720108A128AD48AC38A168A158A99E0A90E75
S1130730B11CECE0CE1AEEEFDE0AFCEDCF16F5E0CC
S1130740DF0601F7F70111821082138212821482EC
S11307501682158210861782F9E0EF0EF11C0E1531
S11307601F0581F79E012E513E4FC8014096F801A6
S1130770119211928F018E179F07C9F78C0182176E
S1130780930799F781EE91E0FE013196AEEBB0E06C
S113079001900D920197E1F7EEEBF0E0638574852B
S11307A081859285FB01EE0FFF1FEE0FFF1FEE0FF9
S11307B0FF1FDF01A80FB91FAA0FBB1FA156BE4F11
S11307C043E050E04D935C93DC011197AE0FBF1FE3
S11307D0AA0FBB1FA156BE4F4D935C939C012F5F84
S11307E03F4FE20FF31FEE0FFF1FE156FE4F518301
S11307F04083FB013197EE0FFF1FEE0FFF1FEE0F3B
S1130800FF1FE80FF91FEE0FFF1FE156FE4F518344
S1130810408316C01A8219821C821B8284E090E0F5
S11308200E94E8089E838D8384E090E00E94E8089B
S113083098878F83CE0101965C01C12CD12C62CFA5
S1130840CF51DE4F0FB6F894DEBF0FBECDBFDF91A0
S1130850CF911F910F91FF90EF90DF90CF90BF90B9
S1130860AF9008950E94410388EF8ABB8FEF87BB46
S113087081BB84BB0E942B020E94070260E081E0DE
S11308800E940E0282E790E00E94A20260E082E0F1
S11308900E940E028BE790E00E94A20208952F921C
S11308A03F924F925F926F927F928F929F92AF92FC
S11308B0BF92CF92DF92EF92FF920F931F93CF9349
S11308C0DF93CDB7DEB76C970FB6F894DEBF0FBEDB
S11308D0CDBF9093E8008093E7000F2EFEEBAF2E80
S11308E0F0E0BF2EF02D75010F2EF8EBCF2EFBE0BC
S11308F0DF2EF02D552453946894882481F8912C8C
S11309008701D70153964D915C9154974F5F5F4F88
S11309109A01369527953695279536952795A9ED0D
S1130920B5E10E94D30896958795929582958F702C
S113093089279F7089278C9D90018D9D300D9C9DEA
S1130940300D11244217530721F0F701548B438BC8
S113095020C0D70154961C921E92539752968C91A4
S1130960811117C00E94550A87709078992324F446
S11309700197886F9F6F0196F80197878687118A80
S1130980108A528A880F991FFC01E156FE4F91820A
S11309908082D80155968D919C91569701965696D2
S11309A09C938E9355978039914008F44FC0F80179
S11309B08289882309F44AC086859785A089B189EC
S11309C09D0197878687AD014F5F5F4F4F705078C9
S11309D0552334F441505109406F5F6F4F5F5F4FAF
S11309E0F801518B408B168A158AFD01EE0FFF1F0B
S11309F0EE0FFF1FEE0FFF1F8E0F9F1F880F991F13
S1130A00FC01E156FE4F118210822F30310521F492
S1130A10D80152961C921AC0F80182898823B1F039
S1130A200088F189E02DD8011E968D919C911F9725
S1130A30EE0FFF1FEE0FFF1FEE0FFF1FE80FF91F52
S1130A40EE0FFF1FE156FE4F91828082B9E0EB0E5C
S1130A50F11CE9EDEE16E0E0FE0609F051CF4091FD
S1130A60E7005091E8009A01369527953695279529
S1130A70ABE3BDE60E94D30896958795929582953F
S1130A808F7089279F7089276CE271E0869F90019F
S1130A90879F300D969F300D11244217530721F480
S1130AA081E08093CB0005C08091CB00882309F4BA
S1130AB003C189B38370813009F488C0823009F09E
S1130AC0FBC0EEEBF0E021853285C384D484B90108
S1130AD0615071091616170614F0CB0102C081E0AB
S1130AE090E0D901A81BB90BCD010F2EFEEBEF2E20
S1130AF0F0E0FF2EF02DF701B287A187D601AA0FEF
S1130B00BB1FAA0FBB1FAA0FBB1F8D01020F131F10
S1130B10000F111F01561E4FF801118210826A0F37
S1130B207B1F660F771F61567E4FFB011182108277
S1130B30B9016F5F7F4F6A0F7B1F660F771F615686
S1130B407E4FFB0111821082F60131978F01000F55
S1130B50111F000F111F000F111F200F311F220F33
S1130B60331F21563E4FF90111821082BD01680FD7
S1130B70791F660F771F61567E4F23E030E0FB013B
S1130B8031832083BC01615071096A0F7B1F660F9A
S1130B90771F61567E4FFB0131832083BC016F5F59
S1130BA07F4FA60FB71FAA0FBB1FA156BE4F2D9391
S1130BB03C93F801E80FF91FEE0FFF1FE156FE4FBB
S1130BC031832083D7011D961C9276C0EEEBF0E0B2
S1130BD0218532856385748586E090E0821B930BC2
S1130BE01816190614F481E090E0820F931F0EEB9F
S1130BF010E0F80192878187DB01AA0FBB1FAA0FBF
S1130C00BB1FAA0FBB1FFD01E20FF31FEE0FFF1F57
S1130C10E156FE4F11821082F9013197EA0FFB1F52
S1130C20EE0FFF1FE156FE4F11821082F90131963B
S1130C30EA0FFB1FEE0FFF1FE156FE4F11821082D9
S1130C4061507109660F771F660F771F660F771F54
S1130C50FB01E20FF31FEE0FFF1FE156FE4F11825F
S1130C601082FD01E80FF91FEE0FFF1FE156FE4F42
S1130C7023E030E031832083FC013197EA0FFB1F2E
S1130C80EE0FFF1FE156FE4F31832083FC013196A6
S1130C90EA0FFB1FEE0FFF1FE156FE4F3183208347
S1130CA0FB01E80FF91FEE0FFF1FE156FE4F3183E2
S1130CB02083D8011D961C929A0136952795369566
S1130CC02795A1EBBBE20E94D3080024880F991F4B
S1130CD0001C880F991F001C892F902D6CED75E066
S1130CE0869F9001879F300D969F300D11244217E7
S1130CF0530721F481E08093C60005C08091C600AB
S1130D00882309F44BC089B3CA990CC247C0208117
S1130D1021113EC002C080E090E0FC01EE0FFF1FF5
S1130D20EE0FFF1FEE0FFF1F8E0F9F1F9C0125511B
S1130D303F4FAEEBB0E0FC01E254FF4F15AA14AAFA
S1130D4013AA12AA81E081AB1B96ED91FC911C972A
S1130D50AF014250510919968D919C911A97F9014E
S1130D609183808353834283FA01EE0FFF1FEE0FBA
S1130D70FF1FEE0FFF1FE80FF91FEE0FFF1FE156D5
S1130D80FE4F83E090E09183808318961C9206C006
S1130D90019639968431910509F0B9CF0F2EFBEEF7
S1130DA08F2EF0E09F2EF02D0FE911E0F4010F2EAD
S1130DB0F3E0CF2ED12CF02D0F2EFFE0EF2EF02DEF
S1130DC0F12C9F01858196810196968385838639CE
S1130DD0910508F457C04080518062807380A3015C
S1130DE041505109C0F44481442381F0A301440FCC
S1130DF0551F440F551F440F551F440D551D440FD7
S1130E00551F41565E4FDA011D921C92D90114966A
S1130E101C924E2D5F2DD90111965C924E92139621
S1130E205C934E93129716961C921E9215971496E5
S1130E304C91442339F1A301440F551F440F551F0E
S1130E40440F551FC201840F951F880F991FDC01A1
S1130E50A156BE4F1D921C92D90112964D915C91E0
S1130E6013978D919C91DA01AA0FBB1FAA0FBB1F88
S1130E70AA0FBB1FA80FB91FAA0FBB1FA156BE4FB5
S1130E80CD92DC923996E017F10709F09ACFEEEB98
S1130E90F0E0208131813C8F2B8F428153815A8F26
S1130EA0498F9F01AF01F4011901D90152968C9128
S1130EB08823B9F184818823A1F1C080D180E280A4
S1130EC0F380D1011E964D905D906D907C9051976A
S1130ED0C414D50431F5E614F70419F5DA018D913B
S1130EE09C91119701968D939C93D1011E96CD9060
S1130EF0DD90ED90FC905197C701880F991F880FE2
S1130F00991F880F991FC80ED91EC601880F991FF3
S1130F1081569E4FDC011D921C921482D10152967F
S1130F201C923996E017F10709F0BFCF275F3F4FB6
S1130F30B0E0293D3B0709F0B6CF22242A94322C95
S1130F400F2EFEEB4F2EF0E05F2EF02D4E01E9E167
S1130F508E0E911C6501D50152968C918823B9F1AE
S1130F6088E0EAE6F0E0DE01519601900D928A9560
S1130F70E1F71A8219823C822B821E821D82188616
S1130F801F82F20181859285A385B485AC01BD01E0
S1130F90F50186859785A089B1899C017D01FE01B3
S1130FA07196DE01119681919191840F951F82179C
S1130FB0930749F48D919C911197860F971F8E1575
S1130FC09F0509F4B9C01296E815F90561F7F9E02F
S1130FD0AF0EB11C29EDA21620E0B20609F0BACF7B
S1130FE08091C0009091C100498D5A8D48175907CE
S1130FF051F42091BE003091BF004B8D5C8D42179F
S1131000530709F4A6C08530910550F48EE0E7E853
S1131010F0E0DE01119601900D928A95E1F722C06D
S11310208A30910550F48DE0E5E9F0E0DE01119697
S113103001900D928A95E1F715C00F9750F483E162
S1131040E2EAF0E0DE01119601900D928A95E1F753
S113105009C089E0E5EBF0E0DE01119601900D9204
S11310608A95E1F70F2EFEEBEF2EF0E0FF2EF02D28
S1131070D70114966D917C9115974AE08D919C91BE
S11310800E94700AF701668177814AE08281938128
S11310900E94700AD7011496ED91FC911597019066
S11310A00020E9F731978CE290E2918380831282E9
S11310B016966D917C91179714968D919C91159726
S11310C00E94650AF701E480F5800E94070260E04F
S11310D081E00E940E02C7010E94A20260E082E049
S11310E00E940E02CE0101960E94A20232C0650146
S11310F010E0D6018D919D916D01892B41F06E2DEB
S1131100812F0E945500B1E2BA95F1F700001F5FEC
S1131110183079F7E0E1AE0EB11CE394F0E1EF1280
S1131120E6CF1AC08091EF00882309F4F4CDE8EFEC
S1131130F0E081E090E0EBCDD20112968D919C918C
S11311401397019613969C938E931297F601128A25
S11311503ECFE12C5801CBCF6C960FB6F894DEBF8E
S11311600FBECDBFDF91CF911F910F91FF90EF90F4
S1131170DF90CF90BF90AF909F908F907F906F90B3
S11311805F904F903F902F9008950E943204C0E0EA
S1131190D0E02196CE010E944F04FBCF8EEB90E06D
S11311A00E94B1020895A29FB001B39FC001A39F02
S11311B0700D811D1124911DB29F700D811D11248C
S11311C0911D0895EE0FFF1F0590F491E02D0994F1
S11311D00F931F93CF93DF938230910510F482E035
S11311E090E0E091A102F091A20220E030E0A0E0C2
S11311F0B0E0309719F14081518102811381481781
S11312005907C8F08417950769F4109731F01296BE
S11312100C93129713961C9327C00093A10210936A
S1131220A20222C02115310519F04217530718F400
S11312309A01BD01EF01DF01F801DBCF2115310572
S1131240F9F0281B390B2430310580F48A819B8105
S11312506115710521F0FB019383828304C090938F
S1131260A2028093A102FE01329644C0FE01E20F65
S1131270F31F8193919322503109398328833AC013
S113128020919F023091A002232B41F4209162000F
S1131290309163003093A00220939F02209160005C
S11312A0309161002115310541F42DB73EB74091CD
S11312B0640050916500241B350BE0919F02F0916E
S11312C0A002E217F307A0F42E1B3F0B28173907DF
S11312D078F0AC014E5F5F4F2417350748F04E0F8E
S11312E05F1F5093A00240939F028193919302C089
S11312F0E0E0F0E0CF01DF91CF911F910F910895CD
S1131300CF93DF93009709F481C0FC0132971382D5
S11313101282A091A102B091A202109781F42081BF
S11313203181820F931F20919F023091A0022817D0
S1131330390751F5F093A002E0939F0267C0ED01D5
S113134020E030E0CE17DF0740F44A815B819E0144
S113135041155105F1F0EA01F5CFD383C2834081F1
S11313605181840F951FC817D90759F48881998131
S1131370840F951F0296918380838A819B81938336
S113138082832115310529F4F093A202E093A1028E
S11313903DC0E901FB83EA8349915991C40FD51FEC
S11313A0EC17FD0761F480819181840F951F0296EB
S11313B0E90199838883828193819B838A83E0E016
S11313C0F0E012968D919C911397009719F0FD010E
S11313D0DC01F7CF8D919C9111979D012E5F3F4FBA
S11313E0820F931F20919F023091A0022817390782
S11313F069F4309729F41092A2021092A10202C05B
S113140013821282B093A002A0939F02DF91CF9126
S113141008958F929F92AF92BF92CF92DF92EF92F4
S1131420FF92CF93DF93EC01688179818A819B815C
S1131430611571058105910521F464E279ED8BE56F
S113144097E02DE133EF41E050E00E94A50A490105
S11314505A019B01AC01A7EAB1E40E94C40A6B01E2
S11314607C01ACEEB4EFA50194010E94D20ADC0128
S1131470CB018C0D9D1DAE1DBF1DB7FF03C0019791
S1131480A109B04888839983AA83BB839F77DF919E
S1131490CF91FF90EF90DF90CF90BF90AF909F904F
S11314A08F9008950E94090A089586E690E00E94AC
S11314B0090A0895A0E0B0E0809366009093670065
S11314C0A0936800B09369000895FB01DC010D90BE
S11314D00020E9F7119701900D920020E1F708959B
S11314E0BB274A3031F4992322F4BDE290958195CB
S11314F09F4F0C947C0ABB27FB015527AA27880F12
S1131500991FAA1FA41710F0A41B83955051B9F773
S1131510A05DAA3308F0A95DA193009779F7B111F2
S1131520B1931192CB010C94950ADC01FC01672F55
S113153071917723E1F7329704C07C916D937083A6
S11315406291AE17BF07C8F30895052E97FB1EF4EA
S113155000940E94BC0A57FD07D00E94D70A07FCDA
S113156003D04EF40C94BC0A5095409530952195C7
S11315703F4F4F4F5F4F08959095809570956195BB
S11315807F4F8F4F9F4F08950E94D308A59F900DC2
S1131590B49F900DA49F800D911D11240895B7FF51
S11315A00C94C40A0E94C40A821B930B0895A1E2FE
S11315B01A2EAA1BBB1BFD010DC0AA1FBB1FEE1FC9
S11315C0FF1FA217B307E407F50720F0A21BB30B14
S11315D0E40BF50B661F771F881F991F1A9469F790
S11315E060957095809590959B01AC01BD01CF01EC
S10915F00895F894FFCFFA
S11315F60000A30220000100000000000000FFFF1D
S1131606010053636F72653A2030004865616C745B
S1131616682046756C6C0047726561742068656164
S11316266C74682100476F6F64206865616C746828
S11316362100437269746963616C206865616C7426
S111164668203A280044656164203A27280091
S9030000FC
